:020000040800F2
:100000000050002049180008451700084B17000849
:1000100051170008571700085D170008000000007E
:10002000000000000000000000000000631700084E
:100030006F170008000000007B17000887170008F2
:1000400091180008911800089118000891180008EC
:1000500091180008911800089118000891180008DC
:1000600091180008911800089118000891180008CC
:1000700091180008911800089118000891180008BC
:1000800091180008911800089118000891180008AC
:10009000911800089118000891180008911800089C
:1000A000911800089118000891180008911800088C
:1000B00095170008A9170008911800089118000862
:1000C000911800089118000891180008911800086C
:1000D0009118000891180008BD1700089118000831
:1000E00091180008911800089118000800000000FD
:1000F0000000000000000000000000000000000000
:0C01000000000000000000005FF808F1A3
:10010C0010B5054C237833B9044B13B10448AFF345
:10011C0000800123237010BDA80000200000000007
:10012C00344A000808B5034B1BB103490348AFF32D
:10013C00008008BD00000000AC000020344A00081C
:10014C0080B483B000AF7860074B1B687A6892FB71
:10015C00F3F3064A1360064B00221A6000BF0C37FB
:10016C00BD4680BC704700BF00000020C4000020CA
:10017C00C800002080B483B000AF7860074B1B68C8
:10018C007A6892FBF3F3064A1360064B00221A605E
:10019C0000BF0C37BD4680BC704700BF000000207C
:1001AC00CC000020D000002080B483B000AF786079
:1001BC00074B1B687A6892FBF3F3064A1360064BF5
:1001CC0000221A6000BF0C37BD4680BC704700BFD0
:1001DC0000000020D4000020D800002080B483B0A0
:1001EC0000AF7860074B1B687A6892FBF3F3064A02
:1001FC001360064B00221A6000BF0C37BD4680BC52
:10020C00704700BF00000020DC000020E000002050
:10021C0080B400AF214B1B68002B0BDD1F4B1B6800
:10022C00013B1E4A13601D4B1B68002B02DC1C4B50
:10023C0001221A601B4B1B68002B0BDD194B1B6832
:10024C00013B184A1360174B1B68002B02DC164B42
:10025C0001221A60154B1B68002B0BDD134B1B681E
:10026C00013B124A1360114B1B68002B02DC104B34
:10027C0001221A600F4B1B68002B0BDD0D4B1B680A
:10028C00013B0C4A13600B4B1B68002B02DC0A4B26
:10029C0001221A6000BFBD4680BC7047C40000201C
:1002AC00C8000020CC000020D0000020D40000208A
:1002BC00D8000020DC000020E000002080B500AF5A
:1002CC000B4B1B680B4A136002210B4801F080FE9C
:1002DC0003461A46064B1A60054B1A68054B1B68F9
:1002EC009A4203D1024B1B68044A136000BF80BDC5
:1002FC000800002004000020000801400C00002031
:10030C0080B500AF1A4B1B681A4A136010211A48AB
:10031C0001F05EFE03461A46154B1A60144B1A6820
:10032C00144B1B689A4203D1114B1B68134A136080
:10033C00124B1B68002B0DD1114B1B68002B05DDDC
:10034C000F4B1B680A3B0E4A13600EE00D4B01224B
:10035C001A600AE0094B1B68012B06D1084B4FF4BD
:10036C007A721A60074B00221A6000BF80BD00BF72
:10037C00140000201000002000080140180000208C
:10038C001C000020E400002080B500AF0B4B1B6864
:10039C000B4A136001210B4801F01AFE03461A4662
:1003AC00064B1A60054B1A68054B1B689A4203D121
:1003BC00024B1B68044A136000BF80BD2400002060
:1003CC0020000020000C01402800002080B500AF68
:1003DC000B4B1B680B4A136001210B4801F0F8FD15
:1003EC0003461A46064B1A60054B1A68054B1B68E8
:1003FC009A4203D1024B1B68044A136000BF80BDB4
:10040C00300000202C0000200008014034000020A7
:10041C0080B400AF054B1B68002B0CBF01230023DD
:10042C00DBB21846BD4680BC704700BF0C000020F4
:10043C0080B400AF054B1B68002B0CBF01230023BD
:10044C00DBB21846BD4680BC704700BF18000020C8
:10045C0080B400AF054B1B68012B0CBF012300239C
:10046C00DBB21846BD4680BC704700BFE4000020DC
:10047C0080B400AF054B1B68002B0CBF012300237D
:10048C00DBB21846BD4680BC704700BF2800002078
:10049C0080B400AF054B1B68002B0CBF012300235D
:1004AC00DBB21846BD4680BC704700BF340000204C
:1004BC0080B582B000AF786039609C4B1B78072BFD
:1004CC0000F2388401A252F823F000BFF9040008AE
:1004DC009105000895070008910800088D0900088F
:1004EC00C30A0008A90B0008E10C0008904B00227D
:1004FC001A6000F01DFD8F4B1B688F4A13608F4BE9
:10050C001B688F4A13608F4B1B688F4A1360894B93
:10051C001B688E4A13608B4B1B688C4A5360874B4D
:10052C001B688A4A936000F093FD894B00221A7075
:10053C00804B1B68874A1360824B1B68854A53604B
:10054C007E4B1B68834A936000F0BEFD824B0222F7
:10055C001A7000F055FD754B01221A704FF47A7029
:10056C00FFF73CFE734B1A68744B1B681A44754BAF
:10057C001B6813445B00794A1360784B1B68784AFC
:10058C001360D7E3774B1B68012B21D14FF47A70A2
:10059C00FFF724FE724B1B68013B714A13606C49D8
:1005AC006A4800F073FC6C496A4800F06FFC00F07C
:1005BC0041FC6D4B1A686C4B5B686C496C4803F0E2
:1005CC00B9FD03469AB264236949786803F0F5F8DB
:1005DC005F4B1B78002B05D15C4B1B68184600F059
:1005EC00B3FD12E05A4B1B78022B05D1574B5B68BD
:1005FC00184600F0A9FD08E0554B1B78012B04D1DF
:10060C00524B9B68184600F09FFD5A4B1B68002B01
:10061C0024D1FFF7FDFE0346012B2BD1444B0022C6
:10062C001A60424B02221A70524B01221A60FA20B5
:10063C00FFF786FD3F4B1B683F4A13603F4B1B681F
:10064C003F4A13603F4B1B683F4A136000F070FC3D
:10065C0000F0D6FC484B00221A600BE0454B1B689F
:10066C00012B07D1FFF7D4FE0346002B02D1414BDF
:10067C0000221A60FFF70CFF0346012B11D13F4BF0
:10068C001B68002B15D13C4B01221A603B4B0122FD
:10069C001A603B4B01221A60304B1B68304A1360C6
:1006AC0007E0FFF7F5FE0346002B02D1334B002287
:1006BC001A60314B1B68012B40F02F83244B1B78A5
:1006CC00002B17D100F074FC204B1B68032B19DC9A
:1006DC002B4B1B68012B15D12A4B1B68FA33294A6B
:1006EC001360284B1A683B681B685A631E20FFF77F
:1006FC0041FD07E000F070FC214B01221A60214BF8
:10070C0000221A60164B1B68002B00F30683104B5B
:10071C001B78002B00F0018300F072FC194B0022B7
:10072C001A60154B00221A60F7E200BF400100204E
:10073C00740100202001002034010020240100203D
:10074C0038010020280100203C0100204401002039
:10075C004101002054010020500100202C010020F8
:10076C0030010020E00000207C0100204C4A0008F1
:10077C00E800002060010020680100206C010020CE
:10078C00D00000201C010020944B1B68184600F080
:10079C00DBFC934B1B68002B11D1924B1A68914BCD
:1007AC005B689149914803F0C5FC03469AB26423F7
:1007BC008E49786803F001F8894B01221A608C4B42
:1007CC001B68012B19D1FA20FFF7BAFC894B1B6867
:1007DC00002B07D100F03CFC00F086FC854B01227D
:1007EC001A600AE0834B1B68012B06D100F058FC01
:1007FC0000F09AFC7F4B00221A607F4B1B68002B89
:10080C0010D1FFF705FE0346012B17D17B4B0322BA
:10081C001A70794B01221A6000F08AFB704B00228F
:10082C001A600BE0744B1B68012B07D1FFF7F0FD2E
:10083C000346002B02D1704B00221A60FFF718FE02
:10084C000346012B05D16D4B07221A706C4B00220D
:10085C001A70FFF7EDFD0346012B08D1674B0522FB
:10086C001A70674B00221A70664B00221A60644B98
:10087C001B78002B40F05382584B1B68184600F035
:10088C0063FC4CE2604B1B68184600F05DFC544B5B
:10089C001B68002B11D1534B1A68524B5B685249A1
:1008AC00524803F047FC03469AB264234F497868D8
:1008BC0002F083FF4A4B01221A604D4B1B68012B3F
:1008CC0019D1FA20FFF73CFC4A4B1B68002B07D1CF
:1008DC0000F0AAFB00F0F8FB464B01221A600AE07C
:1008EC00444B1B68012B06D100F0DAFB00F01CFC1A
:1008FC00404B00221A60404B1B68002B10D1FFF7B5
:10090C0087FD0346012B17D13C4B04221A703A4B3E
:10091C0001221A6000F00CFB314B00221A600BE034
:10092C00354B1B68012B07D1FFF772FD0346002BDB
:10093C0002D1314B00221A60FFF79AFD0346012BBE
:10094C0005D12E4B07221A702D4B02221A70FFF77D
:10095C006FFD0346012B08D1284B05221A70284B3A
:10096C0002221A70274B00221A60254B1B78022B8F
:10097C0040F0D781244B1B68184600F0E5FBD0E112
:10098C00224B1B68184600F0DFFB154B1B68002B35
:10099C0011D1144B1A68134B5B681349134803F0BD
:1009AC00C9FB03469AB264231049786802F005FF2C
:1009BC000B4B01221A600E4B1B68012B33D1FA2012
:1009CC00FFF7BEFB0B4B1B68002B21D100F054FB37
:1009DC0000F09AFB074B01221A6024E0340100203E
:1009EC00740100207C0100204C4A0008E800002023
:1009FC00C800002070010020600100204001002090
:100A0C0078010020640100203C0100203801002006
:100A1C009D4B1B68012B06D100F042FB00F084FBC0
:100A2C00994B00221A60994B1B68002B13D1FFF7CE
:100A3C00EFFC0346012B1AD1954B00221A70934BF5
:100A4C0001221A600020FFF77BFB00F071FA914B3A
:100A5C0000221A600BE08D4B1B68012B07D1FFF7AE
:100A6C00D7FC0346002B02D1884B00221A60FFF7FB
:100A7C00FFFC0346012B05D1854B07221A70864BD0
:100A8C0001221A70FFF7D4FC0346012B08D1804BCE
:100A9C0005221A70804B01221A70804B00221A60BA
:100AAC007D4B1B78012B40F03E817D4B1B6818461B
:100ABC0000F04AFB37E17B4B1B68012B07D1FA2076
:100ACC00FFF73EFB744B1B78184600F039FAFFF722
:100ADC00BFFC0346012B0AD16E4B00221A606C4BF3
:100AEC0006221A704FF4FA70FFF75EFB1CE0FFF75A
:100AFC009FFC0346002B16D1674B1B78022B0AD0A8
:100B0C00022B11DC002B02D0012B08D00CE0604B27
:100B1C0002221A7008E05E4B03221A7004E05C4B50
:100B2C0004221A7000E000BF5C4B1B68002B40F0E5
:100B3C00FC80594B1B78184600F006F9574B0122E4
:100B4C001A60554B1B78022B0CD0022B16DC002B99
:100B5C0002D0012B0CD011E0534B1B68184600F04F
:100B6C00F3FA0BE0514B1B68184600F0EDFA05E068
:100B7C004B4B1B68184600F0E7FA00BF4C4B1A6849
:100B8C004B4B5B684B494C4803F0D4FA03469AB282
:100B9C0064234949786802F010FEC6E0414B1B689B
:100BAC00012B07D1FA20FFF7CBFA3B4B1B781846E9
:100BBC0000F0C6F9FFF73CFC0346002B16D1364B70
:100BCC001B78022B0AD0022B11DC002B02D0012B3C
:100BDC0008D00CE02E4B02221A7008E02C4B03229A
:100BEC001A7004E02A4B04221A7000E000BF334B49
:100BFC001B68012B34D14FF4FA70FFF7D5FA264B52
:100C0C001B78184600F0A0F8234B1B78022B0CD055
:100C1C00022B16DC002B02D0012B0CD011E0224B46
:100C2C001B68184600F090FA0BE0204B1B68184626
:100C3C0000F08AFA05E01A4B1B68184600F084FA9B
:100C4C0000BF1B4B1A681A4B5B681A491A4803F011
:100C5C0071FA03469AB264231749786802F0ADFD25
:100C6C000D4B1B78002B05D10F4B1B68184600F061
:100C7C006BFA5CE0084B1B78022B21D10B4B1B68E9
:100C8C00184600F061FA52E070010020600100206B
:100C9C004001002074010020780100206401002034
:100CAC0038010020C8000020340100203C01002045
:100CBC007C0100204C4A0008E8000020D8000020ED
:100CCC001E4B1B78012B32D11D4B1B68184600F0B4
:100CDC003BFA2CE0194B1B78184600F07BF8FFF719
:100CEC00C7FB0346002B16D1144B1B78022B0AD0E2
:100CFC00022B1EDC002B02D0012B08D019E0114B6B
:100D0C0002221A7008E00F4B03221A7004E00D4BFC
:100D1C0004221A7000E000BF0BE000BF0AE000BF25
:100D2C0008E000BF06E000BF04E000BF02E000BF27
:100D3C0000E000BF00BF0837BD4680BD7801002031
:100D4C00380100204001002080B483B000AF03467E
:100D5C00FB71FB79022B20D0022B30DC002B02D054
:100D6C00012B0DD02BE0184B1B680133164A136076
:100D7C00154B1B68632B1DDD134B01221A6019E008
:100D8C00124B1B680133114A1360104B1B68632B09
:100D9C0012DD0E4B01221A600EE00D4B1B68013365
:100DAC000B4A1360084B1B68632B07DD084B0122B1
:100DBC001A6003E000BF02E000BF00E000BF00BF0C
:100DCC000C37BD4680BC7047340100203801002030
:100DDC003C01002080B483B000AF0346FB71FB796B
:100DEC00022B10D0022B13DC002B02D0012B05D0D0
:100DFC000EE00A4B1B680A4A136009E0094B1B689A
:100E0C00094A136004E0094B1B68094A136000BFD0
:100E1C0000BF0C37BD4680BC704700BF34010020BA
:100E2C002001002038010020240100203C0100207A
:100E3C002801002080B500AF124B1B78002B01D18C
:100E4C0000F006F90F4B1B78022B01D100F0ECF8E7
:100E5C000C4B1B78012B01D100F00EF90A4B1B78BF
:100E6C00002B01D100F040F9074B1B78022B01D16C
:100E7C0000F02AF9044B1B78012B01D100F044F946
:100E8C0000BF80BD410100205001002080B483B020
:100E9C0000AF786039603B681B78002B10D17B6801
:100EAC001B685A1E7B681A607B681B68002B34DC3D
:100EBC001C4B1A687B681A603B6802221A702CE083
:100ECC003B681B78022B12D17B6804331A68013AF9
:100EDC001A607B6804331B68002B1EDC7B680433B0
:100EEC00114A12681A603B6801221A7015E03B68BF
:100EFC001B78012B11D17B6808331A68013A1A60F0
:100F0C007B6808331B68002B07DC7B680833074AB7
:100F1C0012681A603B6800221A7000BF0C37BD467D
:100F2C0080BC7047200100202801002024010020F3
:100F3C0080B500AF00F0B4F800F0F6F800BF80BD4B
:100F4C0080B582B000AF0346FB71184B1B68002BB9
:100F5C001CD1FB79022B10D0022B13DC002B02D0FE
:100F6C00012B05D00EE000F073F800F0BDF809E09D
:100F7C0000F082F800F0C8F804E000F055F800F03A
:100F8C00A3F800BF094B01221A600AE0074B1B684B
:100F9C00012B06D100F084F800F0C6F8034B0022B8
:100FAC001A6000BF0837BD4680BD00BF700100202D
:100FBC0080B500AF00224FF48061054801F01FF8A6
:100FCC0001224FF48071034801F019F800BF80BD75
:100FDC00000C01400008014080B500AF01224FF425
:100FEC008061054801F00BF800224FF48071034832
:100FFC0001F005F800BF80BD000C01400008014065
:10100C0080B500AF00224FF48061054800F0F7FF77
:10101C0000224FF48071034800F0F1FF00BF80BD47
:10102C00000C01400008014080B500AF00224FF4D5
:10103C008061054800F0E3FF01220821034800F01D
:10104C00DEFF00BF80BD00BF00080140000C014066
:10105C0080B500AF01224FF48061054800F0CFFF4E
:10106C0000220821034800F0CAFF00BF80BD00BF6A
:10107C0000080140000C014080B500AF01224FF484
:10108C008061054800F0BBFF01220821034800F0F5
:10109C00B6FF00BF80BD00BF00080140000C01403E
:1010AC0080B500AF00224FF48061054800F0A7FF27
:1010BC0000220821034800F0A2FF00BF80BD00BF42
:1010CC0000080140000C014080B500AF0022202137
:1010DC00044800F094FF01221021024800F08FFF19
:1010EC0000BF80BD000C014080B500AF0122202163
:1010FC00044800F084FF00221021024800F07FFF1A
:10110C0000BF80BD000C014080B500AF0122202142
:10111C00044800F074FF01221021024800F06FFF18
:10112C0000BF80BD000C014080B500AF0022202123
:10113C00044800F064FF00221021024800F05FFF19
:10114C0000BF80BD000C014080B483B000AF78605C
:10115C007B680D4A82FB03129210DB17D31A0B4AE1
:10116C0013607968084B83FB01239A10CB17D21AB2
:10117C0013469B0013445B00CA1A044B5A6000BF11
:10118C000C37BD4680BC7047676666667C010020E4
:10119C0080B500AF00F078FB00F02AF800F050F9B1
:1011AC0000F0AEF800F060F800F020F90A4801F009
:1011BC00A9FB0021094801F04FFC094B05221A60DC
:1011CC00084B02221A60084B03221A600349074895
:1011DC00FFF76EF9FAE700BF84010020CC01002074
:1011EC0020010020240100202801002014020020EE
:1011FC0080B590B000AF07F11803282200211846E3
:10120C0002F090FF3B1D00221A605A609A60DA606F
:10121C001A610223BB610123BB621023FB62002312
:10122C007B6307F11803184600F002FF0346002BFE
:10123C0001D000F085F90F237B600023BB600023F5
:10124C00FB6000233B6100237B613B1D00211846A2
:10125C0001F070F90346002B01D000F071F900BFCA
:10126C004037BD4680BD000080B586B000AF07F1A9
:10127C00080300221A605A609A60DA603B4600222A
:10128C001A605A601D4B4FF080421A601B4B41F69E
:10129C003F725A60194B00229A60184B0922DA608F
:1012AC00164B00221A61154B00229A61134801F06B
:1012BC00D9FA0346002B01D000F042F94FF48053C9
:1012CC00BB6007F1080319460C4801F02DFE0346DC
:1012DC00002B01D000F034F900233B6000237B602D
:1012EC003B461946054802F0ABF90346002B01D0EA
:1012FC0000F026F900BF1837BD4680BD84010020E0
:10130C0080B58EB000AF07F1280300221A605A6036
:10131C009A60DA6007F1200300221A605A603B1DC4
:10132C0000221A605A609A60DA601A615A619A61F6
:10133C002C4B2D4A1A602B4B3F225A60294B002212
:10134C009A60284B40F2E732DA60264B00221A6191
:10135C00244B00229A61234801F084FA0346002BA7
:10136C0001D000F0EDF84FF48053BB6207F1280375
:10137C0019461C4801F0D8FD0346002B01D000F0A3
:10138C00DFF8184801F010FB0346002B01D000F0E9
:10139C00D7F800233B6200237B6207F12003194638
:1013AC00104802F04DF90346002B01D000F0C8F8AC
:1013BC0060237B600023BB600023FB6000237B6108
:1013CC003B1D00221946074801F0F0FC0346002B98
:1013DC0001D000F0B5F8034800F02AF900BF383707
:1013EC00BD4680BDCC0100200004004080B500AF9C
:1013FC00114B124A1A60104B4FF4E1325A600E4BEB
:10140C0000229A600C4B0022DA600B4B00221A610E
:10141C00094B0C225A61084B00229A61064B0022A0
:10142C00DA61054802F07CF90346002B01D000F08C
:10143C0087F800BF80BD00BF1402002000440040AC
:10144C0080B586B000AF07F1080300221A605A601D
:10145C009A60DA602E4B9B692D4A43F0040393612A
:10146C002B4B9B6903F004037B607B68284B9B69C7
:10147C00274A43F008039361254B9B6903F008034B
:10148C003B603B6800224FF48761224800F0B7FDB7
:10149C0000224FF4A061204800F0B1FD1323BB6083
:1014AC000023FB6001233B6107F1080319461A482E
:1014BC0000F00AFC0123BB600023FB6001233B61AD
:1014CC0007F108031946134800F0FEFB4FF487633D
:1014DC00BB600123FB6000233B6102237B6107F1AE
:1014EC00080319460B4800F0EFFB4FF4A063BB60F8
:1014FC000123FB6000233B6102237B6107F108039E
:10150C001946054800F0E0FB00BF1837BD4680BD0A
:10151C0000100240000C01400008014080B582B070
:10152C0000AF7860FEF774FEFEF7C8FEFEF7E8FE2B
:10153C00FEF72AFFFEF74AFF00BF0837BD4680BD05
:10154C0080B400AF72B600BFFEE7000080B485B077
:10155C0000AF154B9B69144A43F001039361124B86
:10156C009B6903F00103BB60BB680F4BDB690E4A40
:10157C0043F08053D3610C4BDB6903F080537B60E9
:10158C007B680A4B5B68FB60FB6823F0E063FB60E5
:10159C00FB6843F00073FB60044AFB68536000BFB8
:1015AC001437BD4680BC704700100240000001405B
:1015BC0080B584B000AF78607B681B68B3F1804F56
:1015CC0014D1194BDB69184A43F00103D361164B54
:1015DC00DB6903F00103FB60FB68002200211C2087
:1015EC0000F08BFA1C2000F0A4FA18E07B681B6852
:1015FC000E4A934213D10C4BDB690B4A43F00203A6
:10160C00D361094BDB6903F00203BB60BB680022AA
:10161C0000211D2000F071FA1D2000F08AFA00BF95
:10162C001037BD4680BD00BF0010024000040040D2
:10163C0080B588B000AF786007F1100300221A6003
:10164C005A609A60DA607B681B680F4A934217D124
:10165C000E4B9B690D4A43F0040393610B4B9B6942
:10166C0003F00403FB60FB6840233B6102237B61B6
:10167C000223FB6107F110031946054800F024FB17
:10168C0000BF2037BD4680BD000400400010024062
:10169C000008014080B588B000AF786007F11003F6
:1016AC0000221A605A609A60DA607B681B681F4AD5
:1016BC00934237D11E4BDB691D4A43F40033D3618F
:1016CC001B4BDB6903F40033FB60FB68184B9B6915
:1016DC00174A43F004039361154B9B6903F0040311
:1016EC00BB60BB6804233B6102237B610323FB616A
:1016FC0007F1100319460F4800F0E6FA08233B6186
:10170C0000237B610023BB6107F1100319460948D4
:10171C0000F0DAFA00220021262000F0EEF9262053
:10172C0000F007FA00BF2037BD4680BD00440040E2
:10173C00001002400008014080B400AFFEE780B406
:10174C0000AFFEE780B400AFFEE780B400AFFEE769
:10175C0080B400AFFEE780B400AF00BFBD4680BCD4
:10176C00704780B400AF00BFBD4680BC704780B4EA
:10177C0000AF00BFBD4680BC704780B500AF00F025
:10178C00C9F800BF80BD000080B500AF024801F071
:10179C0005FA00BF80BD00BF8401002080B500AFFA
:1017AC00024801F0FBF900BF80BD00BFCC01002056
:1017BC0080B500AF024802F093F800BF80BD00BFB7
:1017CC001402002080B586B000AF7860144A154B27
:1017DC00D31A7B617B693B61134B1B68002B02D1D5
:1017EC00114B124A1A60104B1A687B6813443A6901
:1017FC009A4207D202F06CFC03460C221A604FF09E
:10180C00FF3309E0084B1B68FB60074B1A687B68C9
:10181C001344054A1360FB6818461837BD4680BD53
:10182C00005000200004000058020020700200202C
:10183C0080B400AF00BFBD4680BC70470C480D495A
:10184C000D4A002302E0D458C4500433C4188C420F
:10185C00F9D30A4A0A4C002301E013600432A24275
:10186C00FBD3FFF7E5FF02F039FCFFF791FC704763
:10187C0000000020A8000020C04A0008A80000209A
:10188C0070020020FEE7000080B500AF084B1B681B
:10189C00074A43F010031360032000F023F90F20D4
:1018AC0000F008F8FFF752FE0023184680BD00BF79
:1018BC000020024080B582B000AF7860124B1A68ED
:1018CC00124B1B7819464FF47A73B3FBF1F3B2FB4E
:1018DC00F3F3184600F03BF90346002B01D001232B
:1018EC000EE07B680F2B0AD8002279684FF0FF308E
:1018FC0000F003F9064A7B681360002300E0012323
:10190C0018460837BD4680BD380000204000002036
:10191C003C00002080B400AF054B1B781A46054BE9
:10192C001B681344034A136000BFBD4680BC70475C
:10193C00400000205C02002080B400AF024B1B680A
:10194C001846BD4680BC70475C02002080B485B050
:10195C0000AF78607B6803F00703FB600C4BDB681F
:10196C00BB60BA684FF6FF031340BB60FB681A02FA
:10197C00BB68134343F0BF6343F40033BB60044ABA
:10198C00BB68D36000BF1437BD4680BC704700BF36
:10199C0000ED00E080B400AF044BDB681B0A03F0E1
:1019AC0007031846BD4680BC704700BF00ED00E041
:1019BC0080B483B000AF0346FB7197F90730002B5E
:1019CC000BDBFB7903F01F02064997F907305B0923
:1019DC00012000FA02F241F8232000BF0C37BD466B
:1019EC0080BC704700E100E080B483B000AF0346D8
:1019FC003960FB7197F90730002B0ADB3B68DAB2D0
:101A0C000C4997F907301201D2B20B4483F800232A
:101A1C000AE03B68DAB20849FB7903F00F03043B98
:101A2C001201D2B20B441A7600BF0C37BD4680BCF3
:101A3C00704700BF00E100E000ED00E080B489B029
:101A4C0000AFF860B9607A60FB6803F00703FB61D4
:101A5C00FB69C3F10703042B28BF0423BB61FB699B
:101A6C000433062B02D9FB69033B00E000237B61A6
:101A7C004FF0FF32BB6902FA03F3DA43BB681A403A
:101A8C007B699A404FF0FF317B6901FA03F3D9432C
:101A9C007B680B40134318462437BD4680BC704707
:101AAC0080B582B000AF78607B68013BB3F1807F7A
:101ABC0001D301230FE00A4A7B68013B53600F21DD
:101ACC004FF0FF30FFF790FF054B00229A60044B5C
:101ADC0007221A60002318460837BD4680BD00BF98
:101AEC0010E000E080B582B000AF78607868FFF756
:101AFC002DFF00BF0837BD4680BD80B586B000AF56
:101B0C000346B9607A60FB7300237B61FFF742FFE9
:101B1C0078617A68B9687869FFF790FF024697F99F
:101B2C000F3011461846FFF75FFF00BF1837BD4650
:101B3C0080BD80B582B000AF0346FB7197F90730CA
:101B4C001846FFF735FF00BF0837BD4680BD80B58E
:101B5C0082B000AF78607868FFF7A2FF03461846A2
:101B6C000837BD4680BD80B485B000AF78600023D7
:101B7C00FB737B6893F82130022B08D07B6804221E
:101B8C009A637B68002283F82020012320E07B6885
:101B9C001B681A687B681B6822F00E021A607B684F
:101BAC001B681A687B681B6822F001021A607B684C
:101BBC001A6C7B68DB6B012101FA02F25A607B68BC
:101BCC00012283F821207B68002283F82020FB7BF4
:101BDC0018461437BD4680BC7047000080B584B0F1
:101BEC0000AF78600023FB737B6893F82130022BE5
:101BFC0005D07B6804229A630123FB7351E07B6858
:101C0C001B681A687B681B6822F00E021A607B68DE
:101C1C001B681A687B681B6822F001021A607B68DB
:101C2C001B68224A934229D07B681B68204A934246
:101C3C0022D07B681B681F4A93421AD07B681B68B2
:101C4C001D4A934212D07B681B681C4A93420AD0EF
:101C5C007B681B681A4A934202D14FF480130EE042
:101C6C004FF080730BE04FF4803308E04FF4805357
:101C7C0005E04FF4807302E0102300E00123114AC9
:101C8C0053607B68012283F821207B68002283F853
:101C9C0020207B685B6B002B03D07B685B6B7868C8
:101CAC009847FB7B18461037BD4680BD08000240A4
:101CBC001C00024030000240440002405800024028
:101CCC006C0002400000024080B48BB000AF786022
:101CDC00396000237B6200233B6269E101227B6A4D
:101CEC0002FA03F3FB613B681B68FA691340BB61A2
:101CFC00BA69FB699A4240F058813B685B689A4A22
:101D0C0093425ED0984A934275D8984A934258D0E1
:101D1C00964A93426FD8964A934252D0944A934231
:101D2C0069D8944A93424CD0924A934263D8924ACF
:101D3C00934246D0904A93425DD8122B2AD8122B4C
:101D4C0059D801A252F823F0CF1D0008A91D000894
:101D5C00BB1D0008FD1D0008031E0008031E000823
:101D6C00031E0008031E0008031E0008031E0008C3
:101D7C00031E0008031E0008031E0008031E0008B3
:101D8C00031E0008031E0008031E0008B11D0008F6
:101D9C00C51D0008794A934213D02CE03B68DB68E0
:101DAC003B6229E03B68DB6804333B6224E03B6820
:101DBC00DB6808333B621FE03B68DB680C333B623B
:101DCC001AE03B689B68002B02D104233B6213E0B2
:101DDC003B689B68012B05D108233B627B68FA6941
:101DEC001A6109E008233B627B68FA695A6103E0D7
:101DFC0000233B6200E000BFBB69FF2B01D87B686E
:101E0C0001E07B6804337B61BB69FF2B02D87B6AE2
:101E1C009B0002E07B6A083B9B003B617B691A6874
:101E2C000F213B6901FA03F3DB431A40396A3B6922
:101E3C0001FA03F31A437B691A603B685B6803F091
:101E4C008053002B00F0B1804D4B9B694C4A43F002
:101E5C00010393614A4B9B6903F00103BB60BB68B0
:101E6C00484A7B6A9B08023352F82330FB607B6A3A
:101E7C0003F003039B000F2202FA03F3DB43FA681F
:101E8C001340FB607B68404A934213D07B683F4A07
:101E9C0093420DD07B683E4A934207D07B683D4A03
:101EAC00934201D1032306E0042304E0022302E061
:101EBC00012300E000237A6A02F0030292009340AF
:101ECC00FA681343FB602F497B6A9B080233FA685C
:101EDC0041F823203B685B6803F48033002B06D069
:101EEC002D4B1A682C49BB6913430B6006E02A4B37
:101EFC001A68BB69DB43284913400B603B685B687D
:101F0C0003F40033002B06D0234B5A682249BB69DB
:101F1C0013434B6006E0204B5A68BB69DB431E49F8
:101F2C0013404B603B685B6803F48013002B06D0B6
:101F3C00194B9A681849BB6913438B6006E0164B22
:101F4C009A68BB69DB43144913408B603B685B6840
:101F5C0003F40013002B21D00F4BDA680E49BB6938
:101F6C001343CB6021E000BF0000321000003110A1
:101F7C0000002210000021100000121000001110AF
:101F8C00001002400000014000080140000C01401C
:101F9C000010014000140140000401400B4BDA68B2
:101FAC00BB69DB4309491340CB607B6A01337B621D
:101FBC003B681A687B6A22FA03F3002B7FF48EAE1F
:101FCC0000BF00BF2C37BD4680BC704700040140E9
:101FDC0080B485B000AF78600B467B807B689A68D4
:101FEC007B881340002B02D00123FB7301E00023FC
:101FFC00FB73FB7B18461437BD4680BC704780B41E
:10200C0083B000AF78600B467B8013467B707B7887
:10201C00002B03D07A887B681A6103E07B881A0452
:10202C007B681A6100BF0C37BD4680BC704700004E
:10203C0080B586B000AF78607B68002B01D101239E
:10204C0072E27B681B6803F00103002B00F08780B1
:10205C00924B5B6803F00C03042B0CD08F4B5B682A
:10206C0003F00C03082B12D18C4B5B6803F4803308
:10207C00B3F5803F0BD1894B1B6803F40033002B65
:10208C006CD07B685B68002B68D101234CE27B68C9
:10209C005B68B3F5803F06D1804B1B687F4A43F4E5
:1020AC00803313602EE07B685B68002B0CD17B4B7C
:1020BC001B687A4A23F480331360784B1B68774A89
:1020CC0023F4802313601DE07B685B68B3F5A02FBD
:1020DC000CD1724B1B68714A43F4802313606F4B15
:1020EC001B686E4A43F4803313600BE06B4B1B6828
:1020FC006A4A23F480331360684B1B68674A23F4E5
:10210C00802313607B685B68002B13D0FFF714FCF3
:10211C00386108E0FFF710FC02463B69D31A642BC8
:10212C0001D9032300E25D4B1B6803F40033002B41
:10213C00F0D014E0FFF700FC386108E0FFF7FCFB7F
:10214C0002463B69D31A642B01D90323ECE1534BB0
:10215C001B6803F40033002BF0D100E000BF7B6858
:10216C001B6803F00203002B63D04C4B5B6803F03D
:10217C000C03002B0BD0494B5B6803F00C03082BB2
:10218C001CD1464B5B6803F48033002B16D1434BB8
:10219C001B6803F00203002B05D07B681B69012B25
:1021AC0001D00123C0E13D4B1B6823F0F8027B6892
:1021BC005B69DB00394913430B603AE07B681B69B0
:1021CC00002B20D0364B01221A60FFF7B5FB38618B
:1021DC0008E0FFF7B1FB02463B69D31A022B01D989
:1021EC000323A1E12D4B1B6803F00203002BF0D05D
:1021FC002A4B1B6823F0F8027B685B69DB002749DC
:10220C0013430B6015E0264B00221A60FFF794FB7A
:10221C00386108E0FFF790FB02463B69D31A022BAA
:10222C0001D9032380E11D4B1B6803F00203002B33
:10223C00F0D17B681B6803F00803002B3AD07B6855
:10224C009B69002B19D0174B01221A60FFF774FB06
:10225C00386108E0FFF770FB02463B69D31A022B8A
:10226C0001D9032360E10D4B5B6A03F00203002BE1
:10227C00F0D0012000F0D8FA1CE00A4B00221A60C2
:10228C00FFF75AFB38610FE0FFF756FB02463B693C
:10229C00D31A022B08D9032346E100BF00100240D9
:1022AC000000424280044242924B5B6A03F00203FC
:1022BC00002BE9D17B681B6803F00403002B00F0B2
:1022CC00A6800023FB758B4BDB6903F08053002B3E
:1022DC000DD1884BDB69874A43F08053D361854B22
:1022EC00DB6903F08053BB60BB680123FB75824B39
:1022FC001B6803F48073002B18D17F4B1B687E4A3C
:10230C0043F480731360FFF717FB386108E0FFF7A5
:10231C0013FB02463B69D31A642B01D9032303E157
:10232C00754B1B6803F48073002BF0D07B68DB6863
:10233C00012B06D16F4B1B6A6E4A43F001031362EB
:10234C002DE07B68DB68002B0CD16A4B1B6A694A59
:10235C0023F001031362674B1B6A664A23F00403E4
:10236C0013621CE07B68DB68052B0CD1614B1B6A8C
:10237C00604A43F0040313625E4B1B6A5D4A43F0F0
:10238C00010313620BE05B4B1B6A5A4A23F00103F7
:10239C001362584B1B6A574A23F0040313627B6881
:1023AC00DB68002B15D0FFF7C7FA38610AE0FFF79E
:1023BC00C3FA02463B69D31A41F28832934201D9DF
:1023CC000323B1E04B4B1B6A03F00203002BEED04E
:1023DC0014E0FFF7B1FA38610AE0FFF7ADFA0246F4
:1023EC003B69D31A41F28832934201D903239BE013
:1023FC00404B1B6A03F00203002BEED1FB7D012B3B
:10240C0005D13C4BDB693B4A23F08053D3617B689D
:10241C00DB69002B00F08780364B5B6803F00C0304
:10242C00082B61D07B68DB69022B46D1334B002231
:10243C001A60FFF781FA386108E0FFF77DFA02466F
:10244C003B69D31A022B01D903236DE0294B1B687E
:10245C0003F00073002BF0D17B681B6AB3F5803F4F
:10246C0008D1244B5B6823F400327B689B682149BC
:10247C0013434B601F4B5B6823F474127B68196A1F
:10248C007B685B6A0B431B4913434B601B4B01225C
:10249C001A60FFF751FA386108E0FFF74DFA02466F
:1024AC003B69D31A022B01D903233DE0114B1B6866
:1024BC0003F00073002BF0D035E0104B00221A60B3
:1024CC00FFF73AFA386108E0FFF736FA02463B6943
:1024DC00D31A022B01D9032326E0064B1B6803F009
:1024EC000073002BF0D11EE07B68DB69012B07D158
:1024FC00012319E0001002400070004060004242CD
:10250C000B4B5B68FB60FB6803F480327B681B6AD7
:10251C009A4206D1FB6803F470127B685B6A9A429C
:10252C0001D0012300E0002318461837BD4680BDBA
:10253C000010024080B584B000AF786039607B68D1
:10254C00002B01D10123D0E06A4B1B6803F0070379
:10255C003A689A4210D9674B1B6823F00702654909
:10256C003B6813430B60634B1B6803F007033A682B
:10257C009A4201D00123B8E07B681B6803F0020388
:10258C00002B20D07B681B6803F00403002B05D0C4
:10259C00594B5B68584A43F4E06353607B681B6893
:1025AC0003F00803002B05D0534B5B68524A43F4ED
:1025BC0060535360504B5B6823F0F0027B689B6860
:1025CC004D4913434B607B681B6803F00103002BE0
:1025DC0040D07B685B68012B07D1474B1B6803F429
:1025EC000033002B15D101237FE07B685B68022B45
:1025FC0007D1414B1B6803F00073002B09D1012359
:10260C0073E03D4B1B6803F00203002B01D1012347
:10261C006BE0394B5B6823F003027B685B683649DF
:10262C0013434B60FFF788F9F8600AE0FFF784F971
:10263C000246FB68D31A41F28832934201D9032334
:10264C0053E02D4B5B6803F00C027B685B689B00CE
:10265C009A42EBD1274B1B6803F007033A689A4266
:10266C0010D2244B1B6823F0070222493B6813430A
:10267C000B60204B1B6803F007033A689A4201D0A9
:10268C00012332E07B681B6803F00403002B08D0A5
:10269C00194B5B6823F4E0627B68DB6816491343D3
:1026AC004B607B681B6803F00803002B09D0124BAE
:1026BC005B6823F460527B681B69DB000E49134393
:1026CC004B6000F021F802460B4B5B681B0903F0D2
:1026DC000F030A49CB5C22FA03F3094A1360094B36
:1026EC001B681846FFF7E6F8002318461037BD465E
:1026FC0080BD00BF00200240001002406C4A000860
:10270C00380000203C00002090B48AB000AF294B68
:10271C003C1D0FCB84E80F0040F201233B800023CB
:10272C00FB610023BB6100237B6200237B610023E0
:10273C003B62214B5B68FB61FB6903F00C03042BD0
:10274C0002D0082B03D02BE01C4B3B622BE0FB6927
:10275C009B0C03F00F0328333B4413F8243C7B61A0
:10276C00FB6903F48033002B12D0134B5B685B0CBA
:10277C0003F0010328333B4413F8283CBB617B690D
:10278C000E4A03FB02F2BB69B2FBF3F37B6204E07B
:10279C007B690B4A02FB03F37B627B6A3B6202E0C0
:1027AC00064B3B6200BF3B6A18462837BD4690BCBF
:1027BC00704700BF5C4A00080010024000127A000B
:1027CC0000093D0080B400AF024B1B681846BD46A3
:1027DC0080BC70473800002080B500AFFFF7F2FFD7
:1027EC000246054B5B681B0A03F007030349CB5CED
:1027FC0022FA03F3184680BD001002407C4A000800
:10280C0080B500AFFFF7DEFF0246054B5B68DB0AC5
:10281C0003F007030349CB5C22FA03F3184680BD8F
:10282C00001002407C4A000880B485B000AF78608C
:10283C000A4B1B680A4AA2FB03235B0A7A6802FB59
:10284C0003F3FB6000BFFB685A1EFA60002BF9D142
:10285C0000BF00BF1437BD4680BC70473800002055
:10286C00D34D621080B582B000AF78607B68002BCE
:10287C0001D1012341E07B6893F83D30DBB2002BA2
:10288C0006D17B68002283F83C207868FEF790FE26
:10289C007B68022283F83D207B681A687B680433CE
:1028AC001946104600F028FC7B68012283F846206C
:1028BC007B68012283F83E207B68012283F83F204D
:1028CC007B68012283F840207B68012283F8412039
:1028DC007B68012283F842207B68012283F8432025
:1028EC007B68012283F844207B68012283F8452011
:1028FC007B68012283F83D20002318460837BD462B
:10290C0080BD000080B485B000AF78607B6893F820
:10291C003D30DBB2012B01D001233AE07B6802226F
:10292C0083F83D207B681B68DA687B681B6842F083
:10293C000102DA607B681B68184A93420ED07B68F0
:10294C001B68B3F1804F09D07B681B68144A934213
:10295C0004D07B681B68134A934211D17B681B68B7
:10296C009B6803F00703FB60FB68062B10D07B68A9
:10297C001B681A687B681B6842F001021A6007E04A
:10298C007B681B681A687B681B6842F001021A603E
:10299C00002318461437BD4680BC7047002C0140FC
:1029AC00000400400008004080B582B000AF7860A1
:1029BC007B68002B01D1012341E07B6893F83D300B
:1029CC00DBB2002B06D17B68002283F83C207868B0
:1029DC0000F039F87B68022283F83D207B681A6886
:1029EC007B6804331946104600F086FB7B68012295
:1029FC0083F846207B68012283F83E207B68012205
:102A0C0083F83F207B68012283F840207B680122F9
:102A1C0083F841207B68012283F842207B680122E5
:102A2C0083F843207B68012283F844207B680122D1
:102A3C0083F845207B68012283F83D20002318464B
:102A4C000837BD4680BD80B483B000AF786000BF4E
:102A5C000C37BD4680BC704780B584B000AF786041
:102A6C0039603B68002B09D17B6893F83E30DBB2B0
:102A7C00012B14BF01230023DBB222E03B68042BA3
:102A8C0009D17B6893F83F30DBB2012B14BF0123D3
:102A9C000023DBB215E03B68082B09D17B6893F867
:102AAC004030DBB2012B14BF01230023DBB208E062
:102ABC007B6893F84130DBB2012B14BF0123002358
:102ACC00DBB2002B01D001235EE03B68002B04D16C
:102ADC007B68022283F83E2013E03B68042B04D170
:102AEC007B68022283F83F200BE03B68082B04D163
:102AFC007B68022283F8402003E07B68022283F883
:102B0C0041207B681B6801223968184600F074FD6F
:102B1C007B681B681E4A934207D17B681B685A6C02
:102B2C007B681B6842F400425A647B681B68184A35
:102B3C0093420ED07B681B68B3F1804F09D07B6841
:102B4C001B68144A934204D07B681B68124A934258
:102B5C0011D17B681B689B6803F00703FB60FB6863
:102B6C00062B10D07B681B681A687B681B6842F0C8
:102B7C0001021A6007E07B681B681A687B681B6897
:102B8C0042F001021A60002318461037BD4680BD82
:102B9C00002C0140000400400008004080B582B0C9
:102BAC0000AF78607B681B681B6903F00203022B83
:102BBC0022D17B681B68DB6803F00203022B1BD15C
:102BCC007B681B686FF002021A617B6801221A771E
:102BDC007B681B689B6903F00303002B03D07868A8
:102BEC0000F06FFA05E0786800F062FA786800F09F
:102BFC0071FA7B6800221A777B681B681B6903F0EB
:102C0C000403042B22D17B681B68DB6803F00403EC
:102C1C00042B1BD17B681B686FF004021A617B6864
:102C2C0002221A777B681B689B6903F44073002BA4
:102C3C0003D0786800F045FA05E0786800F038FABF
:102C4C00786800F047FA7B6800221A777B681B686B
:102C5C001B6903F00803082B22D17B681B68DB6817
:102C6C0003F00803082B1BD17B681B686FF008026C
:102C7C001A617B6804221A777B681B68DB6903F096
:102C8C000303002B03D0786800F01BFA05E078688A
:102C9C0000F00EFA786800F01DFA7B6800221A77B3
:102CAC007B681B681B6903F01003102B22D17B6817
:102CBC001B68DB6803F01003102B1BD17B681B68AF
:102CCC006FF010021A617B6808221A777B681B6808
:102CDC00DB6903F44073002B03D0786800F0F1F942
:102CEC0005E0786800F0E4F9786800F0F3F97B68A7
:102CFC0000221A777B681B681B6903F00103012B08
:102D0C000ED17B681B68DB6803F00103012B07D134
:102D1C007B681B686FF001021A617868FEF7FEFB96
:102D2C007B681B681B6903F08003802B0ED17B68CA
:102D3C001B68DB6803F08003802B07D17B681B6862
:102D4C006FF080021A61786800F0E1FC7B681B6808
:102D5C001B6903F04003402B0ED17B681B68DB68BA
:102D6C0003F04003402B07D17B681B686FF04002D7
:102D7C001A61786800F0B7F97B681B681B6903F06F
:102D8C002003202B0ED17B681B68DB6803F020032B
:102D9C00202B07D17B681B686FF020021A617868C2
:102DAC0000F0ACFC00BF0837BD4680BD80B584B0D8
:102DBC0000AFF860B9607A60FB6893F83C30012B87
:102DCC0001D10223ACE0FB68012283F83C207B6834
:102DDC000C2B00F29F8001A252F823F01D2E00084C
:102DEC00212F0008212F0008212F00085D2E00083C
:102DFC00212F0008212F0008212F00089F2E0008EA
:102E0C00212F0008212F0008212F0008DF2E000899
:102E1C00FB681B68B968184600F0D0F9FB681B68A2
:102E2C009A69FB681B6842F008029A61FB681B6890
:102E3C009A69FB681B6822F004029A61FB681B68A4
:102E4C009969BB681A69FB681B680A439A6162E05E
:102E5C00FB681B68B968184600F016FAFB681B681B
:102E6C009A69FB681B6842F400629A61FB681B68F4
:102E7C009A69FB681B6822F480629A61FB681B6884
:102E8C009969BB681B691A02FB681B680A439A6143
:102E9C0041E0FB681B68B968184600F05FFAFB68F4
:102EAC001B68DA69FB681B6842F00802DA61FB6890
:102EBC001B68DA69FB681B6822F00402DA61FB68A4
:102ECC001B68D969BB681A69FB681B680A43DA611D
:102EDC0021E0FB681B68B968184600F0A9FAFB688A
:102EEC001B68DA69FB681B6842F40062DA61FB68F4
:102EFC001B68DA69FB681B6822F48062DA61FB6884
:102F0C001B68D969BB681B691A02FB681B680A43FA
:102F1C00DA6100E000BFFB68002283F83C2000234C
:102F2C0018461037BD4680BD80B584B000AF7860C0
:102F3C0039607B6893F83C30012B01D10223B3E05C
:102F4C007B68012283F83C207B68022283F83D20B9
:102F5C007B681B689B68FB60FB6823F07703FB6056
:102F6C00FB6823F47F43FB607B681B68FA689A60FC
:102F7C003B681B68B3F5005F3ED0B3F5005F00F211
:102F8C008780B3F5805F00F08580B3F5805F7FD8D4
:102F9C00702B1AD0702B7BD8602B50D0602B77D82D
:102FAC00502B3CD0502B73D8402B58D0402B6FD883
:102FBC00302B64D0302B6BD8202B60D0202B67D8D3
:102FCC00002B5CD0102B5AD062E07B6818683B68F1
:102FDC0099683B685A683B68DB6800F0EEFA7B68DE
:102FEC001B689B68FB60FB6843F07703FB607B68A6
:102FFC001B68FA689A604EE07B6818683B689968B1
:10300C003B685A683B68DB6800F0D7FA7B681B6842
:10301C009A687B681B6842F480429A603BE07B684C
:10302C0018683B6859683B68DB681A4600F04EFA32
:10303C007B681B685021184600F0A5FA2BE07B68D2
:10304C0018683B6859683B68DB681A4600F06CFAF4
:10305C007B681B686021184600F095FA1BE07B68C2
:10306C0018683B6859683B68DB681A4600F02EFA12
:10307C007B681B684021184600F085FA0BE07B68E2
:10308C001A683B681B681946104600F07CFA02E08F
:10309C0000BF00E000BF7B68012283F83D207B6805
:1030AC00002283F83C20002318461037BD4680BD13
:1030BC0080B483B000AF786000BF0C37BD4680BCD5
:1030CC00704780B483B000AF786000BF0C37BD464A
:1030DC0080BC704780B483B000AF786000BF0C3701
:1030EC00BD4680BC704780B483B000AF786000BF31
:1030FC000C37BD4680BC704780B485B000AF78609B
:10310C0039607B681B68FB607B68294A93420BD053
:10311C007B68B3F1804F07D07B68264A934203D07B
:10312C007B68254A934208D1FB6823F07003FB604F
:10313C003B685B68FA681343FB607B681C4A9342EC
:10314C000BD07B68B3F1804F07D07B68194A934250
:10315C0003D07B68184A934208D1FB6823F4407370
:10316C00FB603B68DB68FA681343FB60FB6823F089
:10317C0080023B685B691343FB607B68FA681A60EA
:10318C003B689A687B68DA623B681A687B689A626B
:10319C007B68074A934203D13B681A697B681A63C0
:1031AC007B6801225A6100BF1437BD4680BC704752
:1031BC00002C0140000400400008004080B487B09F
:1031CC0000AF786039607B681B6A23F001027B6872
:1031DC001A627B681B6A7B617B685B683B617B68FE
:1031EC009B69FB60FB6823F07003FB60FB6823F0BA
:1031FC000303FB603B681B68FA681343FB607B6945
:10320C0023F002037B613B689B687A6913437B6103
:10321C007B681C4A93420CD17B6923F008037B61C9
:10322C003B68DB687A6913437B617B6923F0040399
:10323C007B617B68134A934211D13B6923F4807301
:10324C003B613B6923F400733B613B685B693A6902
:10325C0013433B613B689B693A6913433B617B6851
:10326C003A695A607B68FA689A613B685A687B686D
:10327C005A637B687A691A6200BF1C37BD4680BCF2
:10328C00704700BF002C014080B487B000AF78605D
:10329C0039607B681B6A23F010027B681A627B68BA
:1032AC001B6A7B617B685B683B617B689B69FB602D
:1032BC00FB6823F4E043FB60FB6823F44073FB6082
:1032CC003B681B681B02FA681343FB607B6923F0A5
:1032DC0020037B613B689B681B017A6913437B610C
:1032EC007B681D4A93420DD17B6923F080037B617F
:1032FC003B68DB681B017A6913437B617B6923F0B4
:10330C0040037B617B68144A934213D13B6923F4DD
:10331C0080633B613B6923F400633B613B685B6901
:10332C009B003A6913433B613B689B699B003A697C
:10333C0013433B617B683A695A607B68FA689A610F
:10334C003B685A687B689A637B687A691A6200BF2B
:10335C001C37BD4680BC7047002C014080B487B040
:10336C0000AF786039607B681B6A23F480727B68DD
:10337C001A627B681B6A7B617B685B683B617B685C
:10338C00DB69FB60FB6823F07003FB60FB6823F0D8
:10339C000303FB603B681B68FA681343FB607B69A3
:1033AC0023F400737B613B689B681B027A691343AF
:1033BC007B617B681D4A93420DD17B6923F40063CA
:1033CC007B613B68DB681B027A6913437B617B6919
:1033DC0023F480637B617B68144A934213D13B696D
:1033EC0023F480533B613B6923F400533B613B68FE
:1033FC005B691B013A6913433B613B689B691B0189
:10340C003A6913433B617B683A695A607B68FA6896
:10341C00DA613B685A687B68DA637B687A691A629E
:10342C0000BF1C37BD4680BC704700BF002C01405C
:10343C0080B487B000AF786039607B681B6A23F476
:10344C0080527B681A627B681B6A3B617B685B6895
:10345C007B617B68DB69FB60FB6823F4E043FB600A
:10346C00FB6823F44073FB603B681B681B02FA6823
:10347C001343FB603B6923F400533B613B689B683F
:10348C001B033A6913433B617B680F4A934209D192
:10349C007B6923F480437B613B685B699B017A69A0
:1034AC0013437B617B687A695A607B68FA68DA61DE
:1034BC003B685A687B681A647B683A691A6200BF79
:1034CC001C37BD4680BC7047002C014080B487B0CF
:1034DC0000AFF860B9607A60FB681B6A7B61FB68BF
:1034EC001B6A23F00102FB681A62FB689B693B6153
:1034FC003B6923F0F0033B617B681B013A69134382
:10350C003B617B6923F00A037B617A69BB681343D7
:10351C007B61FB683A699A61FB687A691A6200BF41
:10352C001C37BD4680BC704780B487B000AFF860D4
:10353C00B9607A60FB681B6A23F01002FB681A62A0
:10354C00FB689B697B61FB681B6A3B617B6923F4AD
:10355C0070437B617B681B037A6913437B613B6916
:10356C0023F0A0033B61BB681B013A6913433B6129
:10357C00FB687A699A61FB683A691A6200BF1C376A
:10358C00BD4680BC704780B485B000AF78603960B0
:10359C007B689B68FB60FB6823F07003FB603A68F8
:1035AC00FB68134343F00703FB607B68FA689A607F
:1035BC0000BF1437BD4680BC704780B487B000AFE5
:1035CC00F860B9607A603B60FB689B687B617B69E3
:1035DC0023F47F437B613B681A027B681A43BB6808
:1035EC0013437A6913437B61FB687A699A6000BF65
:1035FC001C37BD4680BC704780B487B000AFF86004
:10360C00B9607A60BB6803F01F03012202FA03F36E
:10361C007B61FB681A6A7B69DB431A40FB681A62A0
:10362C00FB681A6ABB6803F01F03796801FA03F39D
:10363C001A43FB681A6200BF1C37BD4680BC70473A
:10364C0080B485B000AF786039607B6893F83C300B
:10365C00012B01D1022346E07B68012283F83C2038
:10366C007B68022283F83D207B681B685B68FB60EB
:10367C007B681B689B68BB60FB6823F07003FB6076
:10368C003B681B68FA681343FB607B681B68FA682D
:10369C005A607B681B68164A93420ED07B681B6885
:1036AC00B3F1804F09D07B681B68124A934204D057
:1036BC007B681B68104A93420CD1BB6823F08003D3
:1036CC00BB603B685B68BA681343BB607B681B6874
:1036DC00BA689A607B68012283F83D207B680022DF
:1036EC0083F83C20002318461437BD4680BC704735
:1036FC00002C0140000400400008004080B483B05E
:10370C0000AF786000BF0C37BD4680BC704780B4FA
:10371C0083B000AF786000BF0C37BD4680BC7047EB
:10372C0080B582B000AF78607B68002B01D101239B
:10373C003FE07B6893F83D30DBB2002B06D17B6811
:10374C00002283F83C207868FDF7A4FF7B682422D4
:10375C0083F83D207B681B68DA687B681B6822F461
:10376C000052DA60786800F025FC7B681B681A69E7
:10377C007B681B6822F490421A617B681B685A694B
:10378C007B681B6822F02A025A617B681B68DA6826
:10379C007B681B6842F40052DA607B6800221A6472
:1037AC007B68202283F83D207B68202283F83E2012
:1037BC00002318460837BD4680BD80B58AB002AFDD
:1037CC00F860B9603B601346FB8000237B61FB68AB
:1037DC0093F83D30DBB2202B7CD1BB68002B02D0A0
:1037EC00FB88002B01D1012375E0FB6893F83C307A
:1037FC00012B01D102236EE0FB68012283F83C20EF
:10380C00FB6800221A64FB68212283F83D20FEF736
:10381C0093F87861FB68FA889A84FB68FA88DA84F2
:10382C00FB689B68B3F5805F08D1FB681B69002BB4
:10383C0004D10023FB61BB68BB6103E0BB68FB6187
:10384C000023BB61FB68002283F83C202AE03B6824
:10385C0000937B6900228021F86800F011FA03467E
:10386C00002B01D0032336E0FB69002B0BD1BB6985
:10387C001B881A46FB681B68C2F308025A60BB69B6
:10388C000233BB6107E0FB691A78FB681B685A605E
:10389C00FB690133FB61FB68DB8C9BB2013B9AB289
:1038AC00FB68DA84FB68DB8C9BB2002BCFD13B68C6
:1038BC0000937B6900224021F86800F0E1F903468F
:1038CC00002B01D0032306E0FB68202283F83D2067
:1038DC00002300E0022318462037BD4680BD0000BF
:1038EC0080B58AB000AF78607B681B681B687B6210
:1038FC007B681B68DB683B627B681B685B69FB61F0
:10390C000023BB6100237B617B6A03F00F03BB6167
:10391C00BB69002B0DD17B6A03F02003002B08D070
:10392C003B6A03F02003002B03D0786800F099FA6F
:10393C007BE1BB69002B00F0B180FB6903F0010354
:10394C00002B05D13B6A03F49073002B00F0A6808A
:10395C007B6A03F00103002B0AD03B6A03F48073EB
:10396C00002B05D07B681B6C43F001027B681A644A
:10397C007B6A03F00403002B0AD0FB6903F00103FC
:10398C00002B05D07B681B6C43F002027B681A6429
:10399C007B6A03F00203002B0AD0FB6903F00103DE
:1039AC00002B05D07B681B6C43F004027B681A6407
:1039BC007B6A03F00803002B0FD03B6A03F0200353
:1039CC00002B04D1FB6903F00103002B05D07B68AD
:1039DC001B6C43F008027B681A647B681B6C002B21
:1039EC0000F01E817B6A03F02003002B07D03B6A9A
:1039FC0003F02003002B02D0786800F032FA7B68C9
:103A0C001B685B6903F04003002B14BF01230023E8
:103A1C00DBB27B617B681B6C03F00803002B02D1CB
:103A2C007B69002B31D0786800F074F97B681B68D7
:103A3C005B6903F04003002B23D07B681B685A6939
:103A4C007B681B6822F040025A617B689B6B002BE1
:103A5C0013D07B689B6B764A5A637B689B6B1846CA
:103A6C00FEF7BCF80346002B16D07B689B6B5B6B98
:103A7C007A68926B104698470EE0786800F0ECF884
:103A8C000AE0786800F0E8F806E0786800F0E4F8FE
:103A9C007B6800221A64C3E000BFC1E07B681B6B2B
:103AAC00012B40F0A1807B6A03F01003002B00F087
:103ABC009B803B6A03F01003002B00F095800023E1
:103ACC00FB607B681B681B68FB607B681B685B6822
:103ADC00FB60FB687B681B685B6903F04003002B91
:103AEC004ED07B689B6B1B685B683B823B8A002BD0
:103AFC0000F098807B689B8D3A8A9A4280F0928085
:103B0C007B683A8ADA857B689B6B9B69202B2BD070
:103B1C007B681B68DA687B681B6822F48072DA6049
:103B2C007B681B685A697B681B6822F001025A612A
:103B3C007B681B685A697B681B6822F040025A61DB
:103B4C007B68202283F83E207B6800221A637B6806
:103B5C001B68DA687B681B6822F01002DA607B68ED
:103B6C009B6B1846FDF7FFFF7B689A8D7B68DB8D9E
:103B7C009BB2D31A9BB21946786800F076F851E0E4
:103B8C007B689A8D7B68DB8D9BB2D31A7B827B68BA
:103B9C00DB8D9BB2002B47D07B8A002B44D07B68FB
:103BAC001B68DA687B681B6822F49072DA607B68A9
:103BBC001B685A697B681B6822F001025A617B689A
:103BCC00202283F83E207B6800221A637B681B68E6
:103BDC00DA687B681B6822F01002DA607B8A19466F
:103BEC00786800F042F81FE07B6A03F08003002B3A
:103BFC0008D03B6A03F08003002B03D0786800F0F8
:103C0C00C9F812E07B6A03F04003002B0DD03B6A2D
:103C1C0003F04003002B08D0786800F00AF904E0A8
:103C2C0000BF02E000BF00E000BF2837BD4680BDEA
:103C3C00793D000880B483B000AF786000BF0C37CA
:103C4C00BD4680BC704780B483B000AF786000BFC5
:103C5C000C37BD4680BC704780B483B000AF786031
:103C6C0000BF0C37BD4680BC704780B483B000AF3A
:103C7C0078600B467B8000BF0C37BD4680BC70471C
:103C8C0080B584B000AFF860B9603B601346FB713F
:103C9C002CE0BB69B3F1FF3F28D0BB69002B07D0E8
:103CAC00FDF74AFE02463B68D31ABA699A421DD206
:103CBC00FB681B68DA68FB681B6822F4D072DA6058
:103CCC00FB681B685A69FB681B6822F001025A6189
:103CDC00FB68202283F83D20FB68202283F83E20DD
:103CEC00FB68002283F83C2003230FE0FB681B6871
:103CFC001A68BB681340BA689A420CBF01230023B0
:103D0C00DBB21A46FB799A42C3D00023184610370F
:103D1C00BD4680BD80B483B000AF78607B681B6803
:103D2C00DA687B681B6822F49072DA607B681B6827
:103D3C005A697B681B6822F001025A617B681B6B15
:103D4C00012B07D17B681B68DA687B681B6822F043
:103D5C001002DA607B68202283F83E207B68002208
:103D6C001A6300BF0C37BD4680BC704780B584B069
:103D7C0000AF78607B685B6AFB60FB680022DA85C9
:103D8C00FB680022DA84F868FFF766FF00BF103783
:103D9C00BD4680BD80B485B000AF78607B6893F879
:103DAC003D30DBB2212B3ED17B689B68B3F5805F45
:103DBC0014D17B681B69002B10D17B681B6AFB60DC
:103DCC00FB681B881A467B681B68C2F308025A60A2
:103DDC007B681B6A9A1C7B681A6208E07B681B6A0A
:103DEC00591C7A6811621A787B681B685A607B6868
:103DFC00DB8C9BB2013B9BB27A681946D184002BB9
:103E0C000FD17B681B68DA687B681B6822F0800224
:103E1C00DA607B681B68DA687B681B6842F04002DA
:103E2C00DA60002300E0022318461437BD4680BC3C
:103E3C00704780B582B000AF78607B681B68DA6829
:103E4C007B681B6822F04002DA607B68202283F8D2
:103E5C003D207868FFF7EEFE002318460837BD4674
:103E6C0080BD80B586B000AF78607B6893F83E303B
:103E7C00DBB2222B40F099807B689B68B3F5805FA6
:103E8C0017D17B681B69002B13D100237B617B68E6
:103E9C009B6A3B617B681B685B689BB2C3F308033E
:103EAC009AB23B691A807B689B6A9A1C7B689A62FF
:103EBC0026E07B689B6A7B6100233B617B689B6887
:103ECC00B3F5805F07D07B689B68002B0AD17B68B9
:103EDC001B69002B06D17B681B685B68DAB27B69B7
:103EEC001A7008E07B681B685B68DBB203F07F0329
:103EFC00DAB27B691A707B689B6A5A1C7B689A627F
:103F0C007B68DB8D9BB2013B9BB27A681946D185ED
:103F1C00002B48D17B681B68DA687B681B6822F031
:103F2C002002DA607B681B68DA687B681B6822F405
:103F3C008072DA607B681B685A697B681B6822F0A8
:103F4C0001025A617B68202283F83E207B681B6B40
:103F5C00012B23D17B6800221A637B681B68DA680B
:103F6C007B681B6822F01002DA607B681B681B6898
:103F7C0003F01003102B0AD10023FB607B681B6835
:103F8C001B68FB607B681B685B68FB60FB687B687D
:103F9C009B8D19467868FFF768FE02E07868FFF79A
:103FAC0052FE002302E0002300E0022318461837DB
:103FBC00BD4680BD80B584B000AF78607B681B685F
:103FCC001B6923F440517B68DA687B681B680A43E1
:103FDC001A617B689A687B681B691A437B685B690A
:103FEC001343BB607B681B68DB6823F4B05323F07E
:103FFC000C037A681268B9680B43D3607B681B6842
:10400C005B6923F440717B689A697B681B680A437F
:10401C005A617B681B682C4A934203D1FEF7F0FB74
:10402C00F86002E0FEF7D8FBF860FA6813469B00D4
:10403C0013449A001A447B685B689B00B2FBF3F351
:10404C00224AA2FB03235B091901FA6813469B0061
:10405C0013449A001A447B685B689B00B2FBF3F232
:10406C001A4BA3FB02035B09642000FB03F3D31A76
:10407C001B013233154AA2FB03235B0903F0F00347
:10408C001944FA6813469B0013449A001A447B683F
:10409C005B689B00B2FBF3F20C4BA3FB02035B09C6
:1040AC00642000FB03F3D31A1B013233074AA2FB33
:1040BC0003235B0903F00F027B681B680A449A60B8
:1040CC0000BF1037BD4680BD003801401F85EB5145
:1040DC00014B1868704700BF4400002070B50026E3
:1040EC000C4D0D4C641BA410A64209D100F09CFC95
:1040FC0000260A4D0A4C641BA410A64205D170BDC3
:10410C0055F8043B98470136EEE755F8043B9847C1
:10411C000136F2E7B84A0008B84A0008B84A000865
:10412C00BC4A000803460244934200D1704703F88E
:10413C00011BF9E70EB46FF0004100B59CB01DAB4C
:10414C0002900690079104910848094953F8042BF2
:10415C000591006802A9019300F068F80022029B07
:10416C001A701CB05DF804EB03B0704744000020DB
:10417C000802FFFF2DE9F0478E6882469E420C46EE
:10418C0090461F4638D88A8912F4906F32D0256831
:10419C0009690133A5EB010965694B4405EB45053C
:1041AC0005EBD5756D109D4238BF1D46530531D5B5
:1041BC00294600F06FFB064650B90C234FF0FF3038
:1041CC00CAF80030A38943F04003A381BDE8F0870F
:1041DC004A46216900F0CEFAA38923F4906343F098
:1041EC008003A38126614E4426603E466561A5EBA3
:1041FC000905A560BE4200D93E46324641462068BC
:10420C0000F0C6FAA36800209B1BA360236833440C
:10421C002360DBE72A4600F0B1FB06460028E1D11B
:10422C005046216900F0CEFAC7E700002DE9F04FA7
:10423C0098468B8907461B060D4614469DB00ED535
:10424C000B6963B9402100F025FB2860286120B977
:10425C000C233B604FF0FF30D1E040236B61002317
:10426C00099320238DF8293030234FF00109CDF824
:10427C000C80DFF8A4818DF82A3023469A4613F877
:10428C00012B0AB1252AF9D1BAEB040B0BD05B46F2
:10429C00224629463846FFF76DFF013000F0AA8010
:1042AC00099A5A4409929AF80030002B00F0A28027
:1042BC0000234FF0FF32CDE905230AF1010A0493E4
:1042CC0007938DF853301A935446052214F8011BAA
:1042DC00514800F041FA049AD8B9D00644BF2023C3
:1042EC008DF85330110744BF2B238DF853309AF8B7
:1042FC0000302A2B15D0544600204FF00A0C079A98
:10430C00214611F8013B303B092B4ED9B0B1079235
:10431C0014E0A0EB080309FA03F31343A246049339
:10432C00D2E7039B191D1B680391002BBBBF5B429B
:10433C0042F0020207930793B8BF049223782E2B06
:10434C000CD163782A2B35D1039B02341A1D1B68C0
:10435C000392002BB8BF4FF0FF330593DFF8BCA0DE
:10436C0003225046217800F0F7F940B14023A0EB2E
:10437C000A0003FA00F0049B01340343049314F87D
:10438C00011B062226488DF8281000F0E5F90028BC
:10439C0038D0244B1BBB039B073323F00703083394
:1043AC000393099B3344099367E70C4601200CFBEC
:1043BC000232A5E700234FF00A0C1946013405938D
:1043CC00204610F8012B303A092A03D9002BC5D00E
:1043DC000591C3E7044601230CFB0121F0E703AB75
:1043EC0000932A463846104B04A9AFF30080421CB8
:1043FC000646D6D1AB895B063FF52CAF09981DB0AC
:10440C00BDE8F08F03AB00932A463846064B04A94F
:10441C0000F07CF8EBE700BF844A00088A4A0008E9
:10442C008E4A000800000000814100082DE9F04789
:10443C00164699468A680B6907469342B8BF1346DD
:10444C00336091F843200C46DDF820800AB101332B
:10445C0033602368990642BF3368023333602568A2
:10446C0015F0060506D104F1190AE36832689B1AA7
:10447C00AB4228DC94F84320131E226818BF01239A
:10448C0092062DD44946384604F14302C047013008
:10449C0020D02368E56803F00603042B18BF002521
:1044AC0032684FF00006A36808BFAD1A226908BF36
:1044BC0025EAE5759342C4BF9B1AED181A34B54230
:1044CC001AD1002008E00123524649463846C0471D
:1044DC00013003D14FF0FF30BDE8F0870135C4E760
:1044EC003020E11881F843005A1C94F845102244FE
:1044FC00023382F84310C5E7012322464946384669
:10450C00C0470130E6D00136D9E700002DE9FF475E
:10451C000F7E9146782F80460C469A460C9D01F1F1
:10452C00430207D8622F0AD8002F00F0D980582FE9
:10453C0000F0A48004F1420584F842703AE0A7F13F
:10454C006303152BF6D801A151F823F0B1450008EF
:10455C00C545000841450008414500084145000893
:10456C0041450008C5450008414500084145000883
:10457C004145000841450008D3460008F5450008B0
:10458C00B54600084145000841450008F5460008BD
:10459C0041450008F5450008414500084145000823
:1045AC00BD4600082B681A1D1B682A6004F14205E1
:1045BC0084F842300123A4E020682968060601F142
:1045CC0004030AD50E682B60002E03DA2D237642E5
:1045DC0084F843300A235E4819E00E6810F0400F4F
:1045EC002B6018BF36B2EFE72B682068191D2960C5
:1045FC00010601D51E6802E04606FBD51E886F2F0A
:10460C000CBF08230A235248002184F84310656824
:10461C00002DA8BF2168A560A4BF21F00401216072
:10462C000EB9002D4DD01546B6FBF3F103FB116707
:10463C00C75D05F8017D3746BB420E46F4D9082B01
:10464C000BD12368DE0708D5236961689942DEBF68
:10465C00302305F8013C05F1FF35521B22614B4616
:10466C0021464046CDF800A003AAFFF7DFFE01303B
:10467C004CD14FF0FF3004B0BDE8F087344881F8DE
:10468C0045702968236851F8046B29601D0614D500
:10469C00DF0744BF43F0200323601EB9236823F0D7
:1046AC00200323601023AFE7236843F0200323602B
:1046BC007823284884F84530E3E7590648BFB6B25A
:1046CC00E6E71546BBE72B682668181D616928606C
:1046DC0035061B6801D5196002E07006FBD5198000
:1046EC00002315462361BAE72B6800211A1D2A60A6
:1046FC001D686268284600F02FF808B1401B606006
:10470C0063682361002384F84330A8E72A464946AE
:10471C0040462369D0470130ABD023689B0713D4A4
:10472C00E068039B9842B8BF1846A4E701233246C1
:10473C0049464046D04701309BD00135E368039988
:10474C005B1AAB42F2DCEBE7002504F11906F5E746
:10475C00954A0008A64A0008034610B5C9B202449F
:10476C009342184601D1002003E0047801338C42B7
:10477C00F6D110BD0A44914200F1FF3300D17047CD
:10478C0010B511F8014B914203F8014FF9D110BD4E
:10479C00884210B501EB020402D98442234607D8A3
:1047AC00431EA14208D011F8012B03F8012FF8E7A2
:1047BC00014602448A4200D110BD13F8014D02F8A3
:1047CC00014DF7E738B50546002940D051F8043CB7
:1047DC000C1F002BB8BFE41800F010F91C4A13682A
:1047EC0033B9636014602846BDE8384000F00CB95A
:1047FC00A34208D9206821188B4201BF19685B6855
:10480C0009182160EDE71A465B680BB1A342FAD98F
:10481C0011685018A0420BD12068014450188342F3
:10482C001160E0D118685B68014411605360DAE7ED
:10483C0002D90C232B60D6E7206821188B4201BFCC
:10484C0019685B680918216063605460CBE738BD58
:10485C006002002070B50E4E0C463168054611B949
:10486C0000F0BCF830602146284600F0B7F8431C35
:10487C000AD0C41C24F00304A04207D0211A2846F5
:10488C0000F0ACF8013001D14FF0FF34204670BD80
:10489C00640200202DE9F041CD1C25F003050835FC
:1048AC000C2D38BF0C25002D074601DBA94205D97C
:1048BC000C2300263B603046BDE8F0812E4E00F004
:1048CC009DF833681C4634BB29463846FFF7C2FFB7
:1048DC00431C04464DD134682646002E40D1236833
:1048EC003146384604EB030800F078F880453AD19D
:1048FC00216803356D1A25F0030508350C2D38BFDA
:10490C000C2538462946FFF7A5FF01302BD023682C
:10491C002B4423600EE02268521B1ED40B2A16D99E
:10492C006119A342256018BF5960636808BF3160E4
:10493C0062514B60384604F10B0600F065F826F026
:10494C000706231DF21AB6D09B1BA350B3E762686F
:10495C00A3420CBF32605A60ECE723466468B2E7AE
:10496C0034467668B9E70C2338463B6000F04CF8C7
:10497C00A1E72560DEE700BF600200202DE9F041D1
:10498C00804614460E4621B91146BDE8F041FFF7AA
:10499C0081BF2AB9FFF716FF25462846BDE8F081EE
:1049AC0000F038F88442074602D8B4EB500F12D806
:1049BC0021464046FFF76EFF05460028EDD0BC426D
:1049CC002246314628BF3A46FFF7D4FE31464046D0
:1049DC00FFF7F8FEE1E73546DFE7000038B50023C6
:1049EC00054D044608462B60FCF7ECFE431C02D137
:1049FC002B6803B1236038BD68020020014800F029
:104A0C0011B800BF6C020020014800F00CB800BFC8
:104A1C006C02002051F8043C181F002BBCBF0B5833
:104A2C00C018704770477047F8B500BFF8BC08BC99
:104A3C009E467047F8B500BFF8BC08BC9E46704750
:104A4C0021375345473A25642564230D0A0000009D
:104A5C0002030405060708090A0B0C0D0E0F1010B3
:104A6C000000000000000000010203040607080912
:104A7C000000000001020304232D302B2000686C81
:104A8C004C00656667454647003031323334353665
:104A9C00373839414243444546003031323334359E
:0C4AAC00363738396162636465660000CB
:044AB80031010008C0
:044ABC000D010008E0
:104AC0000A000000010000000100000001000000D9
:104AD000010000000100000001000000E8030000E8
:104AE00001000000010000000100000001000000C2
:104AF00001000000010000000024F400100000008C
:104B0000010000004800002000000000000000003C
:104B10000000000000000000000000000000000095
:104B20000000000000000000000000000000000085
:104B30000000000000000000000000000000000075
:104B40000000000000000000000000000000000065
:104B50000000000000000000000000000000000055
:084B600000000000000000004D
:04000005080018498E
:00000001FF
