:020000040800F2
:100000000050002061330008E1140008E7140008E4
:10001000ED140008F3140008F914000800000000B3
:10002000000000000000000000000000FF140008B5
:100030000B15000800000000171500082315000824
:10004000A9330008A9330008A9330008A933000820
:10005000A9330008A9330008A9330008A933000810
:10006000A9330008A9330008A9330008A933000800
:10007000A9330008A9330008A9330008A9330008F0
:10008000A9330008A9330008A9330008A9330008E0
:10009000A9330008A9330008A9330008A9330008D0
:1000A000A9330008A9330008A9330008A9330008C0
:1000B000A9330008A9330008A9330008A9330008B0
:1000C000A9330008A9330008A9330008A9330008A0
:1000D000A9330008A9330008A9330008A933000890
:1000E000A9330008A9330008A93300080000000064
:1000F0000000000000000000000000000000000000
:0C01000000000000000000005FF808F1A3
:10010C0010B5054C237833B9044B13B10448AFF345
:10011C0000800123237010BD84000020000000002B
:10012C00843C000808B5034B1BB103490348AFF3EB
:10013C00008008BD0000000088000020843C0008FE
:10014C0080B400AF054B1B68002B0CBF01230023B0
:10015C00DBB21846BD4680BC704700BF00000020D3
:10016C0080B400AF054B1B68002B0CBF0123002390
:10017C00DBB21846BD4680BC704700BF04000020AF
:10018C0080B400AF054B1B68012B0CBF012300236F
:10019C00DBB21846BD4680BC704700BFA0000020F3
:1001AC0080B400AF054B1B68002B0CBF0123002350
:1001BC00DBB21846BD4680BC704700BF080000206B
:1001CC0080B400AF054B1B68002B0CBF0123002330
:1001DC00DBB21846BD4680BC704700BF0C00002047
:1001EC0080B582B000AF78603960964B1B78072BD6
:1001FC0000F2828401A252F823F000BF2902000809
:10020C00C3020008E3040008FB05000859070008B6
:10021C00770800085D090008B50A00088A4B00221F
:10022C001A6000F071FD894B1B68894A1360894B79
:10023C001B68894A1360894B1B68894A1360834B7E
:10024C001B68884A1360854B1B68864A5360814B38
:10025C001B68844A936000F0E7FD834B00221A7000
:10026C007A4B1B68814A13607C4B1B687F4A536036
:10027C00784B1B687D4A936000F012FE7C4B022287
:10028C001A7000F0A9FD6F4B01221A704FF47A70AE
:10029C0001F084F86D4B1A686E4B1B681A446F4B57
:1002AC001B6813445B00734A1360724B1B68724AE1
:1002BC00136000F021BC714B1B68012B21D14FF452
:1002CC007A7001F06BF86C4B1B68013B6A4A136047
:1002DC006549644800F0C6FC6549644800F0C2FCFE
:1002EC0000F094FC664B1A68654B5B686549664880
:1002FC0003F088F803469AB264236349786802F0E5
:10030C00BFFE594B1B78002B05D1564B1B6818466A
:10031C0000F006FE12E0544B1B78022B05D1514B1A
:10032C005B68184600F0FCFD08E04F4B1B78012B76
:10033C0004D14C4B9B68184600F0F2FD504B1A68E8
:10034C004F4B5B684F49504803F05CF803469AB238
:10035C0064234D49786802F093FE4C4B1B68002BCC
:10036C0024D1FFF7EDFE0346012B2BD1364B002297
:10037C001A60344B02221A70444B01221A60FA2084
:10038C0000F0BEFF314B1B68314A1360314B1B68C8
:10039C00314A1360314B1B68314A136000F0B4FCD6
:1003AC0000F01AFD3A4B00221A600BE0374B1B6829
:1003BC00012B07D1FFF7C4FE0346002B02D1334BB0
:1003CC0000221A60FFF7FCFE0346012B11D1314BC2
:1003DC001B68002B15D12E4B01221A602D4B0122CC
:1003EC001A602D4B01221A60224B1B68224A1360A3
:1003FC0007E0FFF7E5FE0346002B02D1254B002258
:10040C001A60234B1B68012B40F07183164B1B7831
:10041C00002B45D100F0B8FC124B1B68032B47DCBA
:10042C001D4B1B68012B43D11C4B1B68FA331B4A19
:10043C0013601A4B1A683B681B685A631E2000F045
:10044C0079FF35E0A8000020C00000201C0100202E
:10045C00140100202C010020540100204401002034
:10046C00040100202001002034010020380100206C
:10047C001801002010010020300100204002002053
:10048C00480100209C3C0008D0000020AC0000205B
:10049C00B4000020B800002038020020A400002086
:1004AC0000F086FC984B01221A60984B00221A60CF
:1004BC00974B1B68002B00F31A83964B1B78002B71
:1004CC0000F0158300F088FC904B00221A60924BD0
:1004DC0000221A600BE3914B1B68184600F020FDBC
:1004EC008F4B1B68002B11D18E4B1A688D4B5B68A0
:1004FC008D498E4802F086FF03469AB264238B49DD
:10050C00786802F0BDFD864B01221A60884B1B688F
:10051C00012B19D1FA2000F0F3FE864B1B68002B3F
:10052C0007D100F081FC00F0CBFC824B01221A6059
:10053C000AE0804B1B68012B06D100F09DFC00F0FB
:10054C00DFFC7C4B00221A607B4B1B68002B10D10C
:10055C00FFF7F6FD0346012B17D1784B03221A70D7
:10056C00754B01221A6000F0CFFB6D4B00221A6014
:10057C000BE0714B1B68012B07D1FFF7E1FD034624
:10058C00002B02D16C4B00221A60FFF709FE0346C8
:10059C00012B05D1694B07221A70694B00221A7086
:1005AC00FFF7DEFD0346012B08D1644B05221A70C0
:1005BC00634B00221A70634B00221A60604B1B784D
:1005CC00002B04D1554B1B68184600F0A9FC554B69
:1005DC001A68544B5B685449544802F013FF0346A5
:1005EC009AB264235149786802F04AFD84E2564B72
:1005FC001B68184600F094FC494B1B68002B11D16A
:10060C00484B1A68474B5B684749484802F0FAFE6A
:10061C0003469AB264234549786802F031FD404B99
:10062C0001221A60424B1B68012B19D1FA2000F0F1
:10063C0067FE404B1B68002B07D100F0E1FB00F07C
:10064C002FFC3C4B01221A600AE03A4B1B68012B31
:10065C0006D100F011FC00F053FC364B00221A605E
:10066C00354B1B68002B10D1FFF76AFD0346012B9D
:10067C0017D1324B04221A702F4B01221A6000F052
:10068C0043FB274B00221A600BE02B4B1B68012B02
:10069C0007D1FFF755FD0346002B02D1264B002254
:1006AC001A60FFF77DFD0346012B05D1234B072272
:1006BC001A70234B02221A70FFF752FD0346012BCE
:1006CC0008D11E4B05221A701D4B02221A701D4BAD
:1006DC0000221A601A4B1B78022B04D11A4B1B6890
:1006EC00184600F01DFC0F4B1A680E4B5B680E4948
:1006FC000E4802F087FE03469AB264230B497868D1
:10070C0002F0BEFCF8E100BF38020020A40000207B
:10071C003001002034010020B4000020140100201E
:10072C00C0000020480100209C3C0008D0000020A4
:10073C002C020020BC000020AC000020A8000020EF
:10074C0050010020B000002004010020A74B1B68C2
:10075C00184600F0E5FBA64B1B68002B11D1A54BEE
:10076C001A68A44B5B68A449A44802F04BFE0346EC
:10077C009AB26423A149786802F082FC9C4B012256
:10078C001A609F4B1B68012B19D1FA2000F0B8FDA1
:10079C009C4B1B68002B07D100F05AFB00F0A0FB10
:1007AC00984B01221A600AE0964B1B68012B06D16C
:1007BC0000F062FB00F0A4FB924B00221A60924BFB
:1007CC001B68002B13D1FFF7BBFC0346012B1AD17E
:1007DC008E4B00221A708C4B01221A60002000F004
:1007EC008FFD00F091FA824B00221A600BE0864BD1
:1007FC001B68012B07D1FFF7A3FC0346002B02D18A
:10080C00814B00221A60FFF7CBFC0346012B05D16C
:10081C007E4B07221A707E4B01221A70FFF7A0FC48
:10082C000346012B08D1794B05221A70784B012213
:10083C001A70784B00221A60754B1B78012B04D16F
:10084C006A4B1B68184600F06BFB6A4B1A68694BC5
:10085C005B686949694802F0D5FD03469AB2642386
:10086C006649786802F00CFC46E1654B1B68012B6D
:10087C0007D1FA2000F044FD654B1B78184600F0B8
:10088C004BFAFFF77DFC0346012B0AD1584B002293
:10089C001A605E4B06221A704FF4FA7000F064FD79
:1008AC001CE0FFF75DFC0346002B16D1584B1B7860
:1008BC00022B0AD0022B11DC002B02D0012B08D00A
:1008CC000CE0524B02221A7008E0504B03221A70B3
:1008DC0004E04E4B04221A7000E000BF4D4B1B6825
:1008EC00002B40F006814A4B1B78184600F018F993
:1008FC00484B01221A60464B1B78022B0CD0022B62
:10090C0016DC002B02D0012B0CD011E0424B1B68E3
:10091C00184600F005FB0BE0404B1B68184600F036
:10092C00FFFA05E0314B1B68184600F0F9FA00BFDE
:10093C00304B1A682F4B5B682F49304802F062FD30
:10094C0003469AB264232D49786802F099FBD0E0F3
:10095C002B4B1B68012B07D1FA2000F0D1FC2C4B40
:10096C001B78184600F0D8F9FFF7FAFB0346002B6A
:10097C0016D1274B1B78022B0AD0022B11DC002B33
:10098C0002D0012B08D00CE0204B02221A7008E098
:10099C001E4B03221A7004E01C4B04221A7000E058
:1009AC0000BF1F4B1B68012B51D14FF4FA7000F0A4
:1009BC00DBFC174B1B78184600F0B2F8144B1B7875
:1009CC00022B0CD0022B33DC002B02D0012B29D0B4
:1009DC002EE0114B1B68184600F0A2FA28E00F4BD2
:1009EC001B68184600F09CFA22E000BF540100205E
:1009FC00C0000020480100209C3C0008D0000020D2
:100A0C002C020020BC000020AC000020A80000201C
:100A1C0050010020B000002014010020040100202F
:100A2C0034020020364B1B68184600F079FA00BFE0
:100A3C00344B1A68334B5B683349344802F0E2FCA0
:100A4C0003469AB264233149786802F019FB304BA3
:100A5C001B78002B05D12F4B1B68184600F060FA51
:100A6C0012E02B4B1B78022B05D12B4B1B68184625
:100A7C0000F056FA08E0264B1B78012B04D1204BD2
:100A8C001B68184600F04CFA1E4B1A681D4B5B682D
:100A9C001D491E4802F0B6FC03469AB264231B495A
:100AAC00786802F0EDFA27E0194B1B78184600F035
:100ABC007DF8FFF775FB0346002B16D1144B1B7802
:100ACC00022B0AD0022B16DC002B02D0012B08D0F3
:100ADC0011E0124B02221A7008E0104B03221A701C
:100AEC0004E00E4B04221A7000E000BF03E000BFCC
:100AFC0002E000BF00E000BF00BF0837BD4680BD6C
:100B0C0054010020480100209C3C0008D00000202B
:100B1C00500100201401002004010020A800002036
:100B2C0080B483B000AF0346FB71FB79022B20D05D
:100B3C00022B30DC002B02D0012B0DD02BE0184BFC
:100B4C001B680133164A1360154B1B68632B1DDDA4
:100B5C00134B01221A6019E0124B1B680133114A26
:100B6C001360104B1B68632B12DD0E4B01221A60B5
:100B7C000EE00D4B1B6801330B4A1360084B1B68CE
:100B8C00632B07DD084B01221A6003E000BF02E073
:100B9C0000BF00E000BF00BF0C37BD4680BC7047F3
:100BAC0014010020540100200401002080B483B003
:100BBC0000AF0346FB71FB79022B10D0022B13DC28
:100BCC00002B02D0012B05D00EE00A4B1B680A4A01
:100BDC00136009E0094B1B68094A136004E0094BD8
:100BEC001B68094A136000BF00BF0C37BD4680BCB0
:100BFC00704700BF140100201C010020540100208C
:100C0C002C010020040100204401002080B500AF1D
:100C1C00124B1B78002B01D100F006F90F4B1B78FF
:100C2C00022B01D100F0ECF80C4B1B78012B01D1FD
:100C3C0000F00EF90A4B1B78002B01D100F040F9A3
:100C4C00074B1B78022B01D100F02AF9044B1B78BF
:100C5C00012B01D100F044F900BF80BD340100200C
:100C6C001801002080B483B000AF786039603B6815
:100C7C001B78002B10D17B681B685A1E7B681A608E
:100C8C007B681B68002B34DC1C4B1A687B681A6071
:100C9C003B6802221A702CE03B681B78022B12D1A5
:100CAC007B6804331A68013A1A607B6804331B684A
:100CBC00002B1EDC7B680433114A12681A603B68F7
:100CCC0001221A7015E03B681B78012B11D17B684F
:100CDC0008331A68013A1A607B6808331B68002BCA
:100CEC0007DC7B680833074A12681A603B680022ED
:100CFC001A7000BF0C37BD4680BC70471C01002029
:100D0C00440100202C01002080B500AF00F0B4F8A5
:100D1C0000F0F6F800BF80BD80B582B000AF03468E
:100D2C00FB71184B1B68002B1CD1FB79022B10D0CC
:100D3C00022B13DC002B02D0012B05D00EE000F0AF
:100D4C0073F800F0BDF809E000F082F800F0C8F884
:100D5C0004E000F055F800F0A3F800BF094B0122A5
:100D6C001A600AE0074B1B68012B06D100F084F8CF
:100D7C0000F0C6F8034B00221A6000BF0837BD46CE
:100D8C0080BD00BFBC00002080B500AF00224FF436
:100D9C008061054800F0CCFE01224FF480710348BD
:100DAC0000F0C6FE00BF80BD000C014000080140F1
:100DBC0080B500AF01224FF48061054800F0B8FE09
:100DCC0000224FF48071034800F0B2FE00BF80BDDA
:100DDC00000C01400008014080B500AF00224FF428
:100DEC008061054800F0A4FE00224FF48071034896
:100DFC0000F09EFE00BF80BD000C014000080140C9
:100E0C0080B500AF00224FF48061054800F090FEE1
:100E1C0001220821034800F08BFE00BF80BD00BFFB
:100E2C0000080140000C014080B500AF01224FF4D6
:100E3C008061054800F07CFE00220821034800F088
:100E4C0077FE00BF80BD00BF00080140000C0140D0
:100E5C0080B500AF01224FF48061054800F068FEB8
:100E6C0001220821034800F063FE00BF80BD00BFD3
:100E7C0000080140000C014080B500AF00224FF487
:100E8C008061054800F054FE00220821034800F060
:100E9C004FFE00BF80BD00BF00080140000C0140A8
:100EAC0080B500AF00222021044800F041FE012251
:100EBC001021024800F03CFE00BF80BD000C014038
:100ECC0080B500AF01222021044800F031FE002241
:100EDC001021024800F02CFE00BF80BD000C014028
:100EEC0080B500AF01222021044800F021FE012230
:100EFC001021024800F01CFE00BF80BD000C014018
:100F0C0080B500AF00222021044800F011FE002221
:100F1C001021024800F00CFE00BF80BD000C014007
:100F2C0080B483B000AF78607B680D4A82FB0312FB
:100F3C009210DB17D31A0B4A13607968084B83FBAA
:100F4C0001239A10CB17D21A13469B0013445B0053
:100F5C00CA1A044B5A6000BF0C37BD4680BC7047A0
:100F6C00676666664801002080B500AF00F016FB8E
:100F7C0000F02AF800F050F900F0AEF800F060F83C
:100F8C0000F020F90A4801F055FA0021094801F057
:100F9C00FBFA094B05221A60084B02221A60084B17
:100FAC0003221A6003490748FFF71AF9FAE700BF52
:100FBC00A0010020580100201C0100202C01002061
:100FCC0044010020E801002080B590B000AF07F18B
:100FDC00180328220021184602F00CFA3B1D0022AF
:100FEC001A605A609A60DA601A610223BB610123AD
:100FFC00BB621023FB6200237B6307F118031846C6
:10100C0000F0AEFD0346002B01D000F073F90F2366
:10101C007B600023BB600023FB6000233B6100234B
:10102C007B613B1D0021184601F01AF80346002B8A
:10103C0001D000F05FF900BF4037BD4680BD000015
:10104C0080B586B000AF07F1080300221A605A6021
:10105C009A60DA603B4600221A605A601D4B4FF0D2
:10106C0080421A601B4B41F63F725A60194B0022AA
:10107C009A60184B0922DA60164B00221A61154B44
:10108C0000229A61134801F085F90346002B01D028
:10109C0000F030F94FF48053BB6007F10803194698
:1010AC000C4801F0D1FB0346002B01D000F022F9D3
:1010BC0000233B6000237B603B461946054801F04A
:1010CC002BFF0346002B01D000F014F900BF18379A
:1010DC00BD4680BDA001002080B58EB000AF07F1E9
:1010EC00280300221A605A609A60DA6007F1200324
:1010FC0000221A605A603B1D00221A605A609A60E6
:10110C00DA601A615A619A612C4B2D4A1A602B4B8A
:10111C003F225A60294B00229A60284B40F2E7325A
:10112C00DA60264B00221A61244B00229A61234874
:10113C0001F030F90346002B01D000F0DBF84FF43E
:10114C008053BB6207F1280319461C4801F07CFB55
:10115C000346002B01D000F0CDF8184801F0BCF983
:10116C000346002B01D000F0C5F800233B6200239E
:10117C007B6207F120031946104801F0CDFE0346AF
:10118C00002B01D000F0B6F860237B600023BB601D
:10119C000023FB6000237B613B1D0022194607489E
:1011AC0001F094FA0346002B01D000F0A3F8034899
:1011BC0000F05EF900BF3837BD4680BD58010020F5
:1011CC000004004080B500AF114B124A1A60104B5E
:1011DC004FF4E1325A600E4B00229A600C4B002205
:1011EC00DA600B4B00221A61094B0C225A61084B36
:1011FC0000229A61064B0022DA61054801F0EAFEF2
:10120C000346002B01D000F075F800BF80BD00BF75
:10121C00E80100200044004080B586B000AF07F123
:10122C00080300221A605A609A60DA602E4B9B69A0
:10123C002D4A43F0040393612B4B9B6903F0040389
:10124C007B607B68284B9B69274A43F008039361BA
:10125C00254B9B6903F008033B603B6800224FF46D
:10126C008761224800F064FC00224FF4A061204802
:10127C0000F05EFC1323BB600023FB6001233B6189
:10128C0007F1080319461A4800F0CEFA0123BB6097
:10129C000023FB6001233B6107F108031946134847
:1012AC0000F0C2FA4FF48763BB600123FB6000239C
:1012BC003B6102237B6107F1080319460B4800F0E0
:1012CC00B3FA4FF4A063BB600123FB6000233B61C6
:1012DC0002237B6107F108031946054800F0A4FAC4
:1012EC0000BF1837BD4680BD00100240000C014005
:1012FC000008014080B400AF72B600BFFEE70000EA
:10130C0080B483B000AF7860074B1B687A6892FB9F
:10131C00F3F3064A1360064B00221A6000BF0C3729
:10132C00BD4680BC704700BF100000203C0200206E
:10133C002C02002080B483B000AF7860074B1B6890
:10134C007A6892FBF3F3064A1360064B00221A608C
:10135C0000BF0C37BD4680BC704700BF100000209A
:10136C00480200203802002080B483B000AF7860BF
:10137C00074B1B687A6892FBF3F3064A1360064B23
:10138C0000221A6000BF0C37BD4680BC704700BFFE
:10139C0010000020300200203402002080B483B002
:1013AC0000AF7860074B1B687A6892FBF3F3064A30
:1013BC001360064B00221A6000BF0C37BD4680BC80
:1013CC00704700BF100000204402002040020020A3
:1013DC0080B485B000AF154B9B69144A43F00103F0
:1013EC009361124B9B6903F00103BB60BB680F4B0D
:1013FC00DB690E4A43F08053D3610C4BDB6903F07D
:10140C0080537B607B680A4B5B68FB60FB6823F056
:10141C00E063FB60FB6843F00073FB60044AFB680D
:10142C00536000BF1437BD4680BC704700100240AB
:10143C000000014080B485B000AF78607B681B6809
:10144C00094A93420BD1094BDB69084A43F002036A
:10145C00D361064BDB6903F00203FB60FB6800BF42
:10146C001437BD4680BC7047000400400010024099
:10147C0080B588B000AF786007F1100300221A60C5
:10148C005A609A60DA607B681B680F4A934217D1E6
:10149C000E4B9B690D4A43F0040393610B4B9B6904
:1014AC0003F00403FB60FB6840233B6102237B6178
:1014BC000223FB6107F110031946054800F0B4F94B
:1014CC0000BF2037BD4680BD000400400010024024
:1014DC000008014080B400AFFEE780B400AFFEE727
:1014EC0080B400AFFEE780B400AFFEE780B400AF7D
:1014FC00FEE780B400AF00BFBD4680BC704780B42F
:10150C0000AF00BFBD4680BC704780B400AF00BFC9
:10151C00BD4680BC704780B500AF00F085F800BFB9
:10152C0080BD000080B586B000AF7860144A154BC2
:10153C00D31A7B617B693B61134B1B68002B02D177
:10154C00114B124A1A60104B1A687B6813443A69A3
:10155C009A4207D201F024FF03460C221A604FF086
:10156C00FF3309E0084B1B68FB60074B1A687B686C
:10157C001344054A1360FB6818461837BD4680BDF6
:10158C000050002000040000C40000206002002075
:10159C0080B400AF00BFBD4680BC704780B500AFC3
:1015AC00084B1B68074A43F010031360032000F03C
:1015BC0007F90F2000F008F8FFF70AFF0023184680
:1015CC0080BD00BF0020024080B582B000AF7860C3
:1015DC00124B1A68124B1B7819464FF47A73B3FBF3
:1015EC00F1F3B2FBF3F3184600F011F90346002BAC
:1015FC0001D001230EE07B680F2B0AD800227968FA
:10160C004FF0FF3000F0E7F8064A7B6813600023C8
:10161C0000E0012318460837BD4680BD14000020A9
:10162C001C0000201800002080B400AF054B1B7874
:10163C001A46054B1B681344034A136000BFBD4692
:10164C0080BC70471C0000204C02002080B400AF0E
:10165C00024B1B681846BD4680BC70474C020020EC
:10166C0080B485B000AF78607B6803F00703FB6043
:10167C000C4BDB68BB60BA684FF6FF031340BB60D2
:10168C00FB681A02BB68134343F0BF6343F4003397
:10169C00BB60044ABB68D36000BF1437BD4680BC36
:1016AC00704700BF00ED00E080B400AF044BDB6876
:1016BC001B0A03F007031846BD4680BC704700BFE9
:1016CC0000ED00E080B483B000AF03463960FB71DD
:1016DC0097F90730002B0ADB3B68DAB20C4997F913
:1016EC0007301201D2B20B4483F800230AE03B68A6
:1016FC00DAB20849FB7903F00F03043B1201D2B2B2
:10170C000B441A7600BF0C37BD4680BC704700BF37
:10171C0000E100E000ED00E080B489B000AFF860BB
:10172C00B9607A60FB6803F00703FB61FB69C3F1E6
:10173C000703042B28BF0423BB61FB690433062B6E
:10174C0002D9FB69033B00E000237B614FF0FF32C1
:10175C00BB6902FA03F3DA43BB681A407B699A400F
:10176C004FF0FF317B6901FA03F3D9437B680B40DF
:10177C00134318462437BD4680BC704780B582B0F1
:10178C0000AF78607B68013BB3F1807F01D301230C
:10179C000FE00A4A7B68013B53600F214FF0FF308A
:1017AC00FFF790FF054B00229A60044B07221A604A
:1017BC00002318460837BD4680BD00BF10E000E08E
:1017CC0080B582B000AF78607868FFF749FF00BF42
:1017DC000837BD4680BD80B586B000AF0346B96002
:1017EC007A60FB7300237B61FFF75EFF78617A6898
:1017FC00B9687869FFF790FF024697F90F301146E8
:10180C001846FFF75FFF00BF1837BD4680BD80B597
:10181C0082B000AF78607868FFF7B0FF03461846D7
:10182C000837BD4680BD000080B48BB000AF786037
:10183C00396000237B6200233B6269E101227B6AF1
:10184C0002FA03F3FB613B681B68FA691340BB6146
:10185C00BA69FB699A4240F058813B685B689A4AC6
:10186C0093425ED0984A934275D8984A934258D086
:10187C00964A93426FD8964A934252D0944A9342D6
:10188C0069D8944A93424CD0924A934263D8924A74
:10189C00934246D0904A93425DD8122B2AD8122BF1
:1018AC0059D801A252F823F02F1900080919000881
:1018BC001B1900085D19000863190008631900085A
:1018CC0063190008631900086319000863190008FC
:1018DC0063190008631900086319000863190008EC
:1018EC00631900086319000863190008111900082E
:1018FC0025190008794A934213D02CE03B68DB6829
:10190C003B6229E03B68DB6804333B6224E03B68C4
:10191C00DB6808333B621FE03B68DB680C333B62DF
:10192C001AE03B689B68002B02D104233B6213E056
:10193C003B689B68012B05D108233B627B68FA69E5
:10194C001A6109E008233B627B68FA695A6103E07B
:10195C0000233B6200E000BFBB69FF2B01D87B6812
:10196C0001E07B6804337B61BB69FF2B02D87B6A87
:10197C009B0002E07B6A083B9B003B617B691A6819
:10198C000F213B6901FA03F3DB431A40396A3B69C7
:10199C0001FA03F31A437B691A603B685B6803F036
:1019AC008053002B00F0B1804D4B9B694C4A43F0A7
:1019BC00010393614A4B9B6903F00103BB60BB6855
:1019CC00484A7B6A9B08023352F82330FB607B6ADF
:1019DC0003F003039B000F2202FA03F3DB43FA68C4
:1019EC001340FB607B68404A934213D07B683F4AAC
:1019FC0093420DD07B683E4A934207D07B683D4AA8
:101A0C00934201D1032306E0042304E0022302E005
:101A1C00012300E000237A6A02F003029200934053
:101A2C00FA681343FB602F497B6A9B080233FA6800
:101A3C0041F823203B685B6803F48033002B06D00D
:101A4C002D4B1A682C49BB6913430B6006E02A4BDB
:101A5C001A68BB69DB43284913400B603B685B6821
:101A6C0003F40033002B06D0234B5A682249BB6980
:101A7C0013434B6006E0204B5A68BB69DB431E499D
:101A8C0013404B603B685B6803F48013002B06D05B
:101A9C00194B9A681849BB6913438B6006E0164BC7
:101AAC009A68BB69DB43144913408B603B685B68E5
:101ABC0003F40013002B21D00F4BDA680E49BB69DD
:101ACC001343CB6021E000BF000032100000311046
:101ADC000000221000002110000012100000111054
:101AEC00001002400000014000080140000C0140C1
:101AFC000010014000140140000401400B4BDA6857
:101B0C00BB69DB4309491340CB607B6A01337B62C1
:101B1C003B681A687B6A22FA03F3002B7FF48EAEC3
:101B2C0000BF00BF2C37BD4680BC7047000401408D
:101B3C0080B483B000AF78600B467B8013467B701B
:101B4C007B78002B03D07A887B681A6103E07B8852
:101B5C001A047B681A6100BF0C37BD4680BC704705
:101B6C0080B586B000AF78607B68002B01D1012373
:101B7C006CE27B681B6803F00103002B00F087808C
:101B8C00924B5B6803F00C03042B0CD08F4B5B68FF
:101B9C0003F00C03082B12D18C4B5B6803F48033DD
:101BAC00B3F5803F0BD1894B1B6803F40033002B3A
:101BBC006CD07B685B68002B68D1012346E27B68A4
:101BCC005B68B3F5803F06D1804B1B687F4A43F4BA
:101BDC00803313602EE07B685B68002B0CD17B4B51
:101BEC001B687A4A23F480331360784B1B68774A5E
:101BFC0023F4802313601DE07B685B68B3F5A02F92
:101C0C000CD1724B1B68714A43F4802313606F4BE9
:101C1C001B686E4A43F4803313600BE06B4B1B68FC
:101C2C006A4A23F480331360684B1B68674A23F4B9
:101C3C00802313607B685B68002B13D0FFF706FDD5
:101C4C00386108E0FFF702FD02463B69D31A642BAA
:101C5C0001D90323FAE15D4B1B6803F40033002B1D
:101C6C00F0D014E0FFF7F2FC386108E0FFF7EEFC6F
:101C7C0002463B69D31A642B01D90323E6E1534B8B
:101C8C001B6803F40033002BF0D100E000BF7B682D
:101C9C001B6803F00203002B63D04C4B5B6803F012
:101CAC000C03002B0BD0494B5B6803F00C03082B87
:101CBC001CD1464B5B6803F48033002B16D1434B8D
:101CCC001B6803F00203002B05D07B681B69012BFA
:101CDC0001D00123BAE13D4B1B6823F0F8027B686D
:101CEC005B69DB00394913430B603AE07B681B6985
:101CFC00002B20D0364B01221A60FFF7A7FC38616D
:101D0C0008E0FFF7A3FC02463B69D31A022B01D96A
:101D1C0003239BE12D4B1B6803F00203002BF0D037
:101D2C002A4B1B6823F0F8027B685B69DB002749B0
:101D3C0013430B6015E0264B00221A60FFF786FC5C
:101D4C00386108E0FFF782FC02463B69D31A022B8C
:101D5C0001D903237AE11D4B1B6803F00203002B0E
:101D6C00F0D17B681B6803F00803002B3AD07B682A
:101D7C009B69002B19D0174B01221A60FFF766FCE8
:101D8C00386108E0FFF762FC02463B69D31A022B6C
:101D9C0001D903235AE10D4B5B6A03F00203002BBC
:101DAC00F0D0012000F0D8FA1CE00A4B00221A6097
:101DBC00FFF74CFC38610FE0FFF748FC02463B692B
:101DCC00D31A022B08D9032340E100BF00100240B4
:101DDC0000004242800442429E4B5B6A03F00203C5
:101DEC00002BE9D17B681B6803F00403002B00F087
:101DFC00A6800023FB75974BDB6903F08053002B07
:101E0C000DD1944BDB69934A43F08053D361914BD2
:101E1C00DB6903F08053BB60BB680123FB758E4B01
:101E2C001B6803F48073002B18D18B4B1B688A4AF8
:101E3C0043F480731360FFF709FC386108E0FFF787
:101E4C0005FC02463B69D31A642B01D90323FDE040
:101E5C00814B1B6803F48073002BF0D07B68DB682C
:101E6C00012B06D17B4B1B6A7A4A43F001031362A8
:101E7C002DE07B68DB68002B0CD1764B1B6A754A16
:101E8C0023F001031362734B1B6A724A23F00403A1
:101E9C0013621CE07B68DB68052B0CD16D4B1B6A55
:101EAC006C4A43F0040313626A4B1B6A694A43F0A1
:101EBC00010313620BE0674B1B6A664A23F00103B4
:101ECC001362644B1B6A634A23F0040313627B683E
:101EDC00DB68002B15D0FFF7B9FB38610AE0FFF780
:101EEC00B5FB02463B69D31A41F28832934201D9C1
:101EFC000323ABE0574B1B6A03F00203002BEED01D
:101F0C0014E0FFF7A3FB38610AE0FFF79FFB0246E2
:101F1C003B69D31A41F28832934201D9032395E0ED
:101F2C004C4B1B6A03F00203002BEED1FB7D012B03
:101F3C0005D1484BDB69474A23F08053D3617B685A
:101F4C00DB69002B00F08180424B5B6803F00C03D3
:101F5C00082B61D07B68DB69022B46D13F4B0022FA
:101F6C001A60FFF773FB386108E0FFF76FFB02465E
:101F7C003B69D31A022B01D9032367E0354B1B684D
:101F8C0003F00073002BF0D17B681B6AB3F5803F24
:101F9C0008D1304B5B6823F400327B689B682D4979
:101FAC0013434B602B4B5B6823F474127B68196AE8
:101FBC007B685B6A0B43274913434B60274B012219
:101FCC001A60FFF743FB386108E0FFF73FFB02465E
:101FDC003B69D31A022B01D9032337E01D4B1B6835
:101FEC0003F00073002BF0D02FE01C4B00221A6082
:101FFC00FFF72CFB386108E0FFF728FB02463B6932
:10200C00D31A022B01D9032320E0124B1B6803F0D7
:10201C000073002BF0D118E07B68DB69012B01D138
:10202C00012313E00B4B5B68FB60FB6803F480320D
:10203C007B681B6A9A4206D1FB6803F470127B68BA
:10204C005B6A9A4201D0012300E00023184618373E
:10205C00BD4680BD0010024000700040600042424E
:10206C0080B584B000AF786039607B68002B01D1FB
:10207C000123D0E06A4B1B6803F007033A689A42CD
:10208C0010D9674B1B6823F0070265493B68134363
:10209C000B60634B1B6803F007033A689A4201D04C
:1020AC000123B8E07B681B6803F00203002B20D0EF
:1020BC007B681B6803F00403002B05D0594B5B684D
:1020CC00584A43F4E06353607B681B6803F00803D1
:1020DC00002B05D0534B5B68524A43F4605353605A
:1020EC00504B5B6823F0F0027B689B684D491343AF
:1020FC004B607B681B6803F00103002B40D07B68AE
:10210C005B68012B07D1474B1B6803F40033002B92
:10211C0015D101237FE07B685B68022B07D1414B13
:10212C001B6803F00073002B09D1012373E03D4BB6
:10213C001B6803F00203002B01D101236BE0394B28
:10214C005B6823F003027B685B68364913434B6082
:10215C00FFF77CFAF8600AE0FFF778FA0246FB68B2
:10216C00D31A41F28832934201D9032353E02D4B09
:10217C005B6803F00C027B685B689B009A42EBD1B6
:10218C00274B1B6803F007033A689A4210D2244B82
:10219C001B6823F0070222493B6813430B60204B5A
:1021AC001B6803F007033A689A4201D0012332E01E
:1021BC007B681B6803F00403002B08D0194B5B6889
:1021CC0023F4E0627B68DB68164913434B607B6841
:1021DC001B6803F00803002B09D0124B5B6823F437
:1021EC0060527B681B69DB000E4913434B6000F0A7
:1021FC0021F802460B4B5B681B0903F00F030A49DD
:10220C00CB5C22FA03F3094A1360094B1B6818468E
:10221C00FFF7DAF9002318461037BD4680BD00BF22
:10222C000020024000100240BC3C000814000020BA
:10223C001800002090B48AB000AF2A4B3C1D0FCB85
:10224C0084E80F0040F201233B800023FB61002354
:10225C00BB6100237B6200237B6100233B62224B2A
:10226C005B68FB61FB6903F00C03042B02D0082BA9
:10227C0003D02DE01D4B3B622DE0FB699B0C03F062
:10228C000F0307F12802134413F8243C7B61FB690C
:10229C0003F48033002B13D0134B5B685B0C03F0FF
:1022AC00010307F12802134413F8283CBB617B6936
:1022BC000E4A02FB03F2BB69B2FBF3F37B6204E050
:1022CC007B690B4A02FB03F37B627B6A3B6202E095
:1022DC00064B3B6200BF3B6A18462837BD4690BC94
:1022EC00704700BFAC3C00080010024000127A009E
:1022FC0000093D0080B400AF024B1B681846BD4678
:10230C0080BC70471400002080B500AFFFF7F2FFCF
:10231C000246054B5B681B0A03F007030349CB5CC1
:10232C0022FA03F3184680BD00100240CC3C000892
:10233C0080B500AFFFF7DEFF0246054B5B68DB0A9A
:10234C0003F007030349CB5C22FA03F3184680BD64
:10235C0000100240CC3C000880B485B000AF78601F
:10236C000A4B1B680A4AA2FB03235B0A7A6802FB2E
:10237C0003F3FB6000BFFB685A1EFA60002BF9D117
:10238C0000BF00BF1437BD4680BC7047140000204E
:10239C00D34D621080B582B000AF78607B68002BA3
:1023AC0001D1012341E07B6893F83D30DBB2002B77
:1023BC0006D17B68002283F83C207868FFF73AF856
:1023CC007B68022283F83D207B681A687B680433A3
:1023DC001946104600F0FCFA7B68012283F846206F
:1023EC007B68012283F83E207B68012283F83F2022
:1023FC007B68012283F840207B68012283F841200E
:10240C007B68012283F842207B68012283F84320F9
:10241C007B68012283F844207B68012283F84520E5
:10242C007B68012283F83D20002318460837BD46FF
:10243C0080BD000080B485B000AF78607B6893F8F5
:10244C003D30DBB2012B01D001233AE07B68022244
:10245C0083F83D207B681B68DA687B681B6842F058
:10246C000102DA607B681B68184A93420ED07B68C5
:10247C001B68B3F1804F09D07B681B68144A9342E8
:10248C0004D07B681B68134A934211D17B681B688C
:10249C009B6803F00703FB60FB68062B10D07B687E
:1024AC001B681A687B681B6842F001021A6007E01F
:1024BC007B681B681A687B681B6842F001021A6013
:1024CC00002318461437BD4680BC7047002C0140D1
:1024DC00000400400008004080B582B000AF786076
:1024EC007B68002B01D1012341E07B6893F83D30E0
:1024FC00DBB2002B06D17B68002283F83C20786885
:10250C0000F039F87B68022283F83D207B681A685A
:10251C007B6804331946104600F05AFA7B68012296
:10252C0083F846207B68012283F83E207B680122D9
:10253C0083F83F207B68012283F840207B680122CE
:10254C0083F841207B68012283F842207B680122BA
:10255C0083F843207B68012283F844207B680122A6
:10256C0083F845207B68012283F83D200023184620
:10257C000837BD4680BD80B483B000AF786000BF23
:10258C000C37BD4680BC704780B584B000AF786016
:10259C0039603B68002B09D17B6893F83E30DBB285
:1025AC00012B14BF01230023DBB222E03B68042B78
:1025BC0009D17B6893F83F30DBB2012B14BF0123A8
:1025CC000023DBB215E03B68082B09D17B6893F83C
:1025DC004030DBB2012B14BF01230023DBB208E037
:1025EC007B6893F84130DBB2012B14BF012300232D
:1025FC00DBB2002B01D001235EE03B68002B04D141
:10260C007B68022283F83E2013E03B68042B04D144
:10261C007B68022283F83F200BE03B68082B04D137
:10262C007B68022283F8402003E07B68022283F857
:10263C0041207B681B6801223968184600F048FC71
:10264C007B681B681E4A934207D17B681B685A6CD7
:10265C007B681B6842F400425A647B681B68184A0A
:10266C0093420ED07B681B68B3F1804F09D07B6816
:10267C001B68144A934204D07B681B68124A93422D
:10268C0011D17B681B689B6803F00703FB60FB6838
:10269C00062B10D07B681B681A687B681B6842F09D
:1026AC0001021A6007E07B681B681A687B681B686C
:1026BC0042F001021A60002318461037BD4680BD57
:1026CC00002C0140000400400008004080B584B09C
:1026DC0000AFF860B9607A60FB6893F83C30012B6E
:1026EC0001D10223ACE0FB68012283F83C207B681B
:1026FC000C2B00F29F8001A252F823F03D2700081A
:10270C004128000841280008412800087D270008BE
:10271C00412800084128000841280008BF2700086C
:10272C00412800084128000841280008FF2700081C
:10273C00FB681B68B968184600F0ACF9FB681B68AD
:10274C009A69FB681B6842F008029A61FB681B6877
:10275C009A69FB681B6822F004029A61FB681B688B
:10276C009969BB681A69FB681B680A439A6162E045
:10277C00FB681B68B968184600F0F2F9FB681B6827
:10278C009A69FB681B6842F400629A61FB681B68DB
:10279C009A69FB681B6822F480629A61FB681B686B
:1027AC009969BB681B691A02FB681B680A439A612A
:1027BC0041E0FB681B68B968184600F03BFAFB68FF
:1027CC001B68DA69FB681B6842F00802DA61FB6877
:1027DC001B68DA69FB681B6822F00402DA61FB688B
:1027EC001B68D969BB681A69FB681B680A43DA6104
:1027FC0021E0FB681B68B968184600F085FAFB6895
:10280C001B68DA69FB681B6842F40062DA61FB68DA
:10281C001B68DA69FB681B6822F48062DA61FB686A
:10282C001B68D969BB681B691A02FB681B680A43E1
:10283C00DA6100E000BFFB68002283F83C20002333
:10284C0018461037BD4680BD80B584B000AF7860A7
:10285C0039607B6893F83C30012B01D10223B3E043
:10286C007B68012283F83C207B68022283F83D20A0
:10287C007B681B689B68FB60FB6823F07703FB603D
:10288C00FB6823F47F43FB607B681B68FA689A60E3
:10289C003B681B68B3F5005F3ED0B3F5005F00F2F8
:1028AC008780B3F5805F00F08580B3F5805F7FD8BB
:1028BC00702B1AD0702B7BD8602B50D0602B77D814
:1028CC00502B3CD0502B73D8402B58D0402B6FD86A
:1028DC00302B64D0302B6BD8202B60D0202B67D8BA
:1028EC00002B5CD0102B5AD062E07B6818683B68D8
:1028FC0099683B685A683B68DB6800F0CAFA7B68E9
:10290C001B689B68FB60FB6843F07703FB607B688C
:10291C001B68FA689A604EE07B6818683B68996897
:10292C003B685A683B68DB6800F0B3FA7B681B684D
:10293C009A687B681B6842F480429A603BE07B6833
:10294C0018683B6859683B68DB681A4600F02AFA3D
:10295C007B681B685021184600F081FA2BE07B68DD
:10296C0018683B6859683B68DB681A4600F048FAFF
:10297C007B681B686021184600F071FA1BE07B68CD
:10298C0018683B6859683B68DB681A4600F00AFA1D
:10299C007B681B684021184600F061FA0BE07B68ED
:1029AC001A683B681B681946104600F058FA02E09A
:1029BC0000BF00E000BF7B68012283F83D207B68EC
:1029CC00002283F83C20002318461037BD4680BDFA
:1029DC0080B485B000AF786039607B681B68FB60A1
:1029EC007B68294A93420BD07B68B3F1804F07D0A8
:1029FC007B68264A934203D07B68254A934208D1D0
:102A0C00FB6823F07003FB603B685B68FA68134358
:102A1C00FB607B681C4A93420BD07B68B3F1804F00
:102A2C0007D07B68194A934203D07B68184A9342BB
:102A3C0008D1FB6823F44073FB603B68DB68FA68E1
:102A4C001343FB60FB6823F080023B685B69134314
:102A5C00FB607B68FA681A603B689A687B68DA628C
:102A6C003B681A687B689A627B68074A934203D179
:102A7C003B681A697B681A637B6801225A6100BF44
:102A8C001437BD4680BC7047002C01400004004048
:102A9C000008004080B487B000AF786039607B6874
:102AAC001B6A23F001027B681A627B681B6A7B61DC
:102ABC007B685B683B617B689B69FB60FB6823F010
:102ACC007003FB60FB6823F00303FB603B681B682F
:102ADC00FA681343FB607B6923F002037B613B685C
:102AEC009B687A6913437B617B681C4A93420CD1C7
:102AFC007B6923F008037B613B68DB687A691343CD
:102B0C007B617B6923F004037B617B68134A9342EE
:102B1C0011D13B6923F480733B613B6923F400734F
:102B2C003B613B685B693A6913433B613B689B695A
:102B3C003A6913433B617B683A695A607B68FA686F
:102B4C009A613B685A687B685A637B687A691A6237
:102B5C0000BF1C37BD4680BC704700BF002C014035
:102B6C0080B487B000AF786039607B681B6A23F053
:102B7C0010027B681A627B681B6A7B617B685B68EE
:102B8C003B617B689B69FB60FB6823F4E043FB6063
:102B9C00FB6823F44073FB603B681B681B02FA68FC
:102BAC001343FB607B6923F020037B613B689B68CC
:102BBC001B017A6913437B617B681D4A93420DD1DB
:102BCC007B6923F080037B613B68DB681B017A69BE
:102BDC0013437B617B6923F040037B617B68144A60
:102BEC00934213D13B6923F480633B613B6923F42B
:102BFC0000633B613B685B699B003A6913433B6133
:102C0C003B689B699B003A6913433B617B683A695B
:102C1C005A607B68FA689A613B685A687B689A6369
:102C2C007B687A691A6200BF1C37BD4680BC70474E
:102C3C00002C014080B487B000AF786039607B68AD
:102C4C001B6A23F480727B681A627B681B6A7B6147
:102C5C007B685B683B617B68DB69FB60FB6823F02E
:102C6C007003FB60FB6823F00303FB603B681B688D
:102C7C00FA681343FB607B6923F400737B613B6848
:102C8C009B681B027A6913437B617B681D4A9342E4
:102C9C000DD17B6923F400637B613B68DB681B020D
:102CAC007A6913437B617B6923F480637B617B6866
:102CBC00144A934213D13B6923F480533B613B6923
:102CCC0023F400533B613B685B691B013A69134376
:102CDC003B613B689B691B013A6913433B617B6811
:102CEC003A695A607B68FA68DA613B685A687B68B3
:102CFC00DA637B687A691A6200BF1C37BD4680BCF8
:102D0C00704700BF002C014080B487B000AF7860E2
:102D1C0039607B681B6A23F480527B681A627B687B
:102D2C001B6A3B617B685B687B617B68DB69FB6072
:102D3C00FB6823F4E043FB60FB6823F44073FB6007
:102D4C003B681B681B02FA681343FB603B6923F466
:102D5C0000533B613B689B681B033A6913433B611F
:102D6C007B680F4A934209D17B6923F480437B61D2
:102D7C003B685B699B017A6913437B617B687A6969
:102D8C005A607B68FA68DA613B685A687B681A6437
:102D9C007B683A691A6200BF1C37BD4680BC70471D
:102DAC00002C014080B487B000AFF860B9607A6045
:102DBC00FB681B6A7B61FB681B6A23F00102FB68E2
:102DCC001A62FB689B693B613B6923F0F0033B6132
:102DDC007B681B013A6913433B617B6923F00A034F
:102DEC007B617A69BB6813437B61FB683A699A61C2
:102DFC00FB687A691A6200BF1C37BD4680BC7047FD
:102E0C0080B487B000AFF860B9607A60FB681B6A69
:102E1C0023F01002FB681A62FB689B697B61FB68FC
:102E2C001B6A3B617B6923F470437B617B681B03EA
:102E3C007A6913437B613B6923F0A0033B61BB6858
:102E4C001B013A6913433B61FB687A699A61FB6821
:102E5C003A691A6200BF1C37BD4680BC704780B40B
:102E6C0085B000AF786039607B689B68FB60FB685D
:102E7C0023F07003FB603A68FB68134343F00703CD
:102E8C00FB607B68FA689A6000BF1437BD4680BC53
:102E9C00704780B487B000AFF860B9607A603B606F
:102EAC00FB689B687B617B6923F47F437B613B6898
:102EBC001A027B681A43BB6813437A6913437B611C
:102ECC00FB687A699A6000BF1C37BD4680BC7047AE
:102EDC0080B487B000AFF860B9607A60BB6803F06B
:102EEC001F03012202FA03F37B61FB681A6A7B69F8
:102EFC00DB431A40FB681A62FB681A6ABB6803F072
:102F0C001F03796801FA03F31A43FB681A6200BFC6
:102F1C001C37BD4680BC704780B485B000AF78606C
:102F2C0039607B6893F83C30012B01D1022346E0D9
:102F3C007B68012283F83C207B68022283F83D20C9
:102F4C007B681B685B68FB607B681B689B68BB606D
:102F5C00FB6823F07003FB603B681B68FA68134343
:102F6C00FB607B681B68FA685A607B681B68164AB2
:102F7C0093420ED07B681B68B3F1804F09D07B68FD
:102F8C001B68124A934204D07B681B68104A934218
:102F9C000CD1BB6823F08003BB603B685B68BA68EC
:102FAC001343BB607B681B68BA689A607B6801221C
:102FBC0083F83D207B68002283F83C2000231846D0
:102FCC001437BD4680BC7047002C01400004004003
:102FDC000008004080B582B000AF78607B68002BA1
:102FEC0001D101233FE07B6893F83D30DBB2002B2D
:102FFC0006D17B68002283F83C20786800F037F813
:10300C007B68242283F83D207B681B68DA687B6828
:10301C001B6822F40052DA60786800F00DF97B68C6
:10302C001B681A697B681B6822F490421A617B68E2
:10303C001B685A697B681B6822F02A025A617B68FC
:10304C001B68DA687B681B6842F40052DA607B68A4
:10305C0000221A647B68202283F83D207B682022A2
:10306C0083F83E20002318460837BD4680BD80B447
:10307C0083B000AF786000BF0C37BD4680BC704792
:10308C0080B58AB002AFF860B9603B601346FB8034
:10309C0000237B61FB6893F83D30DBB2202B7CD1A5
:1030AC00BB68002B02D0FB88002B01D1012375E0FB
:1030BC00FB6893F83C30012B01D102236EE0FB68D6
:1030CC00012283F83C20FB6800221A64FB68212251
:1030DC0083F83D20FEF7BAFA7861FB68FA889A8487
:1030EC00FB68FA88DA84FB689B68B3F5805F08D1CB
:1030FC00FB681B69002B04D10023FB61BB68BB611F
:10310C0003E0BB68FB610023BB61FB68002283F812
:10311C003C202AE03B6800937B6900228021F86800
:10312C0000F040F80346002B01D0032336E0FB6986
:10313C00002B0BD1BB691B881A46FB681B68C2F3BA
:10314C0008025A60BB690233BB6107E0FB691A785D
:10315C00FB681B685A60FB690133FB61FB68DB8C05
:10316C009BB2013B9AB2FB68DA84FB68DB8C9BB2A6
:10317C00002BCFD13B6800937B6900224021F8687B
:10318C0000F010F80346002B01D0032306E0FB6887
:10319C00202283F83D20002300E00223184620372C
:1031AC00BD4680BD80B584B000AFF860B9603B60AF
:1031BC001346FB712CE0BB69B3F1FF3F28D0BB6910
:1031CC00002B07D0FEF742FA02463B68D31ABA69C5
:1031DC009A421DD2FB681B68DA68FB681B6822F4F4
:1031EC00D072DA60FB681B685A69FB681B6822F0B6
:1031FC0001025A61FB68202283F83D20FB682022E3
:10320C0083F83E20FB68002283F83C2003230FE068
:10321C00FB681B681A68BB681340BA689A420CBFFB
:10322C0001230023DBB21A46FB799A42C3D0002358
:10323C0018461037BD4680BD80B584B000AF7860AD
:10324C007B681B681B6923F440517B68DA687B68D8
:10325C001B680A431A617B689A687B681B691A436E
:10326C007B685B691343BB607B681B68DB6823F47A
:10327C00B05323F00C037A681268B9680B43D3601F
:10328C007B681B685B6923F440717B689A697B6877
:10329C001B680A435A617B681B682C4A934203D112
:1032AC00FFF746F8F86002E0FFF72EF8F860FA68CE
:1032BC0013469B0013449A001A447B685B689B007E
:1032CC00B2FBF3F3224AA2FB03235B091901FA6850
:1032DC0013469B0013449A001A447B685B689B005E
:1032EC00B2FBF3F21A4BA3FB02035B09642000FB55
:1032FC0003F3D31A1B013233154AA2FB03235B09D8
:10330C0003F0F0031944FA6813469B0013449A0027
:10331C001A447B685B689B00B2FBF3F20C4BA3FB7B
:10332C0002035B09642000FB03F3D31A1B01323345
:10333C00074AA2FB03235B0903F00F027B681B689F
:10334C000A449A6000BF1037BD4680BD003801406A
:10335C001F85EB510C480D490D4A002302E0D4584F
:10336C00C4500433C4188C42F9D30A4A0A4C0023C3
:10337C0001E013600432A242FBD3FEF709F900F01E
:10338C0015F8FDF7F1FD70470000002084000020C7
:10339C00103D00088400002060020020FEE70000C1
:1033AC00014B1868704700BF2000002070B5002644
:1033BC000C4D0D4C641BA410A64209D100F05CFC12
:1033CC0000260A4D0A4C641BA410A64205D170BD00
:1033DC0055F8043B98470136EEE755F8043B9847FF
:1033EC000136F2E7083D0008083D0008083D0008DA
:1033FC000C3D000803460244934200D1704703F889
:10340C00011BF9E70EB46FF0004100B59CB01DAB89
:10341C0002900690079104910848094953F8042B2F
:10342C000591006802A9019300F068F80022029B44
:10343C001A701CB05DF804EB03B07047200000203C
:10344C000802FFFF2DE9F0478E6882469E420C462B
:10345C0090461F4638D88A8912F4906F32D025686E
:10346C0009690133A5EB010965694B4405EB450579
:10347C0005EBD5756D109D4238BF1D46530531D5F2
:10348C00294600F053FB064650B90C234FF0FF3091
:10349C00CAF80030A38943F04003A381BDE8F0874C
:1034AC004A46216900F0CEFAA38923F4906343F0D5
:1034BC008003A38126614E4426603E466561A5EBE0
:1034CC000905A560BE4200D93E46324641462068F9
:1034DC0000F0C6FAA36822689B1B32440020A3604C
:1034EC002260DBE72A4600F07BFB06460028E1D190
:1034FC005046216900F0CEFAC7E700002DE9F04FE5
:10350C0098468B8907461B060D4614469DB00ED572
:10351C000B6963B9402100F009FB2860286120B9D0
:10352C000C233B604FF0FF30D1E040236B61002354
:10353C00099320238DF8293030234FF00109CDF861
:10354C000C80DFF8A4818DF82A3023469A4613F8B4
:10355C00012B0AB1252AF9D1BAEB040B0BD05B462F
:10356C00224629463846FFF76DFF013000F0AA804D
:10357C00099A5A4409929AF80030002B00F0A28064
:10358C0000234FF0FF32CDE905230AF1010A049321
:10359C0007938DF853301A935446052214F8011BE7
:1035AC00514800F041FA049AD8B9D00644BF202300
:1035BC008DF85330110744BF2B238DF853309AF8F4
:1035CC0000302A2B15D0544600204FF00A0C079AD5
:1035DC00214611F8013B303B092B4ED9B0B1079273
:1035EC0014E0A0EB080309FA03F31343A246049377
:1035FC00D2E7039B191D1B680391002BBBBF5B42D9
:10360C0042F0020207930793B8BF049223782E2B43
:10361C000CD163782A2B35D1039B02341A1D1B68FD
:10362C000392002BB8BF4FF0FF330593DFF8C8A00F
:10363C0003225046217800F0F7F940B14023A0EB6B
:10364C000A0003FA00F0049B01340343049314F8BA
:10365C00011B062225488DF8281000F0E5F90028FA
:10366C0038D0234B1BBB039B073323F007030833D2
:10367C000393099B3344099367E70C4601200CFB29
:10368C000232A5E700234FF00A0C194601340593CA
:10369C00204610F8012B303A092A03D9002BC5D04B
:1036AC000591C3E7044601230CFB0121F0E703ABB2
:1036BC0000932A4638460F4B04A9AFF30080421CF6
:1036CC000646D6D1AB895B063FF52CAF09981DB0E9
:1036DC00BDE8F08F03AB00932A463846054B04A98E
:1036EC0000F07CF8EBE700BFD43C0008DE3C00089F
:1036FC000000000051340008DA3C00082DE9F047C6
:10370C00164699468A680B6907469342B8BF13461A
:10371C00336091F843200C46DDF820800AB1013368
:10372C0033602368990642BF3368023333602568DF
:10373C0015F0060506D104F1190AE36832689B1AE4
:10374C00AB4228DC94F84320131E226818BF0123D7
:10375C0092062DD44946384604F14302C047013045
:10376C0020D02368E56803F00603042B18BF00255E
:10377C0032684FF00006A36808BFAD1A226908BF73
:10378C0025EAE5759342C4BF9B1AED181A34B5426D
:10379C001AD1002008E00123524649463846C0475A
:1037AC00013003D14FF0FF30BDE8F0870135C4E79D
:1037BC003020E11881F843005A1C94F8451022443B
:1037CC00023382F84310C5E70123224649463846A6
:1037DC00C0470130E6D00136D9E700002DE9FF479C
:1037EC000C46277E9146782F80469A460C9904F118
:1037FC00430207D8622F0AD8002F00F0D980582F27
:10380C0000F0A48004F1420684F842703AE0A7F17B
:10381C006303152BF6D801A050F823F0813800086B
:10382C0095380008113800081138000811380008C4
:10383C0011380008953800081138000811380008B4
:10384C001138000811380008A3390008C5380008E1
:10385C00853900081138000811380008C5390008EE
:10386C0011380008C5380008113800081138000854
:10387C008D3900080B6804F142061A1D1B680A609A
:10388C0084F842300123A4E0256808682E0600F174
:10389C0004030AD505680B60002D03DA2D236D4255
:1038AC0084F843300A235E4819E015F0400F056890
:1038BC000B6018BF2DB2EFE70B682568181D086068
:1038CC00280601D51D6802E06906FBD51D886F2FFF
:1038DC000CBF08230A235248002184F84310666861
:1038EC00002EA8BF2168A660A4BF21F004012160AE
:1038FC000DB9002E4DD01646B5FBF3F103FB115755
:10390C00C75D06F8017D2F46BB420D46F4D9082B46
:10391C000BD12368DF0708D5236961689942DEBFA4
:10392C00302306F8013C06F1FF36921B22614B4610
:10393C0021464046CDF800A003AAFFF7DFFE013078
:10394C004CD14FF0FF3004B0BDE8F087344884F818
:10395C0045700E68236856F8045B1F060E6014D57C
:10396C00D90744BF43F0200323601DB9236823F01B
:10397C00200323601023AFE7236843F02003236068
:10398C007823284884F84530E3E75E0648BFADB29B
:10399C00E6E71646BBE70B6826681D1D60690D60DF
:1039AC0035061B6801D5186002E07106FBD518803E
:1039BC00002316462361BAE70B681A1D0A601E68BD
:1039CC0000213046626800F02FF808B1801B60605F
:1039DC0063682361002384F84330A8E732464946E4
:1039EC0040462369D0470130ABD023689B0713D4E2
:1039FC00E068039B9842B8BF1846A4E701233246FF
:103A0C0049464046D04701309BD00135E3680399C5
:103A1C005B1AAB42F2DCEBE7002504F11906F5E783
:103A2C00E53C0008F63C0008034610B5C9B2024458
:103A3C009342184601D1002003E0047801338C42F4
:103A4C00F6D110BD0A44914200F1FF3300D170470A
:103A5C0010B511F8014B914203F8014FF9D110BD8B
:103A6C00884210B501EB020402D98442234607D8E0
:103A7C00431EA14208D011F8012B03F8012FF8E7DF
:103A8C00014602448A4200D110BD13F8014D02F8E0
:103A9C00014DF7E738B50546002943D051F8043CF1
:103AAC000C1F002BB8BFE41800F0D0F81E4A1368A6
:103ABC00104633B9636014602846BDE8384000F006
:103ACC00CBB8A3420AD921686218934201BF1A6885
:103ADC005B685218226063600460EDE71A465B680D
:103AEC000BB1A342FAD911685018A0420BD120682F
:103AFC000144501883421160DED118685B680144A0
:103B0C0011605360D8E702D90C232B60D4E72068EE
:103B1C0021188B4201BF19685B680918216063602A
:103B2C005460C9E738BD00BFC8000020F8B5CD1CF3
:103B3C0025F0030508350C2D38BF0C25002D064645
:103B4C0001DBA94203D90C2333600020F8BD00F03F
:103B5C007DF821490A6814469CB9204F3B6823B96B
:103B6C002146304600F062F838602946304600F0B5
:103B7C005DF8431C23D10C233046336000F06CF805
:103B8C00E3E723685B1B17D40B2B03D923601C447E
:103B9C00256004E06368A2420CBF0B6053603046A2
:103BAC0000F05AF804F10B00231D20F00700C21A94
:103BBC00CCD01B1AA350C9E722466468CCE7C41CBE
:103BCC0024F00304A042E3D0211A304600F02EF872
:103BDC000130DDD1CFE700BFC8000020CC000020B1
:103BEC00F8B5074614460E4621B91146BDE8F84013
:103BFC00FFF79CBF22B9FFF74DFF25462846F8BDBD
:103C0C0000F030F8A0420FD221463846FFF78EFF65
:103C1C0005460028F2D031462246FFF713FF314605
:103C2C003846FFF737FFE9E73546E7E738B50023B5
:103C3C00054D044608462B60FDF774FC431C02D16D
:103C4C002B6803B1236038BD50020020014800F0FE
:103C5C0011B800BF58020020014800F00CB800BF9A
:103C6C005802002051F8043C181F002BBCBF0B5805
:103C7C00C018704770477047F8B500BFF8BC08BC57
:103C8C009E467047F8B500BFF8BC08BC9E4670470E
:103C9C0021375345473A25642564230D0000000065
:103CAC0002030405060708090A0B0C0D0E0F101071
:103CBC0000000000000000000102030406070809D0
:103CCC000000000001020304232D302B2000686C3F
:103CDC004C00656667454647003031323334353623
:103CEC00373839414243444546003031323334355C
:0C3CFC0036373839616263646566000089
:043D0800310100087D
:043D0C000D0100089D
:103D1000010000000100000001000000010000009F
:103D20000A0000000024F400100000000100000060
:103D3000240000200000000000000000000000003F
:103D40000000000000000000000000000000000073
:103D50000000000000000000000000000000000063
:103D60000000000000000000000000000000000053
:103D70000000000000000000000000000000000043
:103D80000000000000000000000000000000000033
:043D9000000000002F
:04000005080033615B
:00000001FF
